{
  "contractName": "ScaleChain",
  "abi": [
    {
      "constant": true,
      "inputs": [
        {
          "name": "",
          "type": "uint256"
        }
      ],
      "name": "scale_id",
      "outputs": [
        {
          "name": "eth_pk",
          "type": "address"
        },
        {
          "components": [
            {
              "name": "X",
              "type": "uint256[2]"
            },
            {
              "name": "Y",
              "type": "uint256[2]"
            }
          ],
          "name": "pub_key",
          "type": "tuple"
        },
        {
          "name": "ip_addr",
          "type": "uint32"
        },
        {
          "name": "index",
          "type": "uint256"
        }
      ],
      "payable": false,
      "stateMutability": "view",
      "type": "function"
    },
    {
      "constant": true,
      "inputs": [
        {
          "name": "",
          "type": "uint256"
        }
      ],
      "name": "curr_hash",
      "outputs": [
        {
          "name": "",
          "type": "bytes32"
        }
      ],
      "payable": false,
      "stateMutability": "view",
      "type": "function"
    },
    {
      "constant": true,
      "inputs": [],
      "name": "threshold",
      "outputs": [
        {
          "name": "",
          "type": "uint16"
        }
      ],
      "payable": false,
      "stateMutability": "view",
      "type": "function"
    },
    {
      "constant": true,
      "inputs": [
        {
          "name": "",
          "type": "address"
        }
      ],
      "name": "scale_nodes",
      "outputs": [
        {
          "name": "eth_pk",
          "type": "address"
        },
        {
          "components": [
            {
              "name": "X",
              "type": "uint256[2]"
            },
            {
              "name": "Y",
              "type": "uint256[2]"
            }
          ],
          "name": "pub_key",
          "type": "tuple"
        },
        {
          "name": "ip_addr",
          "type": "uint32"
        },
        {
          "name": "index",
          "type": "uint256"
        }
      ],
      "payable": false,
      "stateMutability": "view",
      "type": "function"
    },
    {
      "constant": true,
      "inputs": [
        {
          "name": "",
          "type": "address"
        }
      ],
      "name": "side_nodes",
      "outputs": [
        {
          "name": "eth_pk",
          "type": "address"
        },
        {
          "name": "ip_addr",
          "type": "uint32"
        },
        {
          "name": "sid",
          "type": "uint256"
        }
      ],
      "payable": false,
      "stateMutability": "view",
      "type": "function"
    },
    {
      "constant": true,
      "inputs": [
        {
          "name": "",
          "type": "uint256"
        }
      ],
      "name": "buffer",
      "outputs": [
        {
          "name": "header",
          "type": "string"
        },
        {
          "name": "sid",
          "type": "uint256"
        },
        {
          "name": "bid",
          "type": "uint256"
        }
      ],
      "payable": false,
      "stateMutability": "view",
      "type": "function"
    },
    {
      "constant": true,
      "inputs": [
        {
          "name": "",
          "type": "uint256"
        }
      ],
      "name": "block_id",
      "outputs": [
        {
          "name": "",
          "type": "uint256"
        }
      ],
      "payable": false,
      "stateMutability": "view",
      "type": "function"
    },
    {
      "inputs": [
        {
          "name": "admin_address",
          "type": "address"
        },
        {
          "name": "t",
          "type": "uint16"
        }
      ],
      "payable": false,
      "stateMutability": "nonpayable",
      "type": "constructor"
    },
    {
      "constant": false,
      "inputs": [
        {
          "name": "side_node_addresses",
          "type": "address[]"
        },
        {
          "name": "ip_addrs",
          "type": "uint32[]"
        }
      ],
      "name": "addSideChain",
      "outputs": [],
      "payable": false,
      "stateMutability": "nonpayable",
      "type": "function"
    },
    {
      "constant": false,
      "inputs": [
        {
          "name": "new_side_node",
          "type": "address"
        },
        {
          "name": "ip_addr",
          "type": "uint32"
        },
        {
          "name": "sid",
          "type": "uint256"
        }
      ],
      "name": "addSideNode",
      "outputs": [],
      "payable": false,
      "stateMutability": "nonpayable",
      "type": "function"
    },
    {
      "constant": false,
      "inputs": [
        {
          "name": "new_scale_node",
          "type": "address"
        },
        {
          "name": "pkx1",
          "type": "uint256"
        },
        {
          "name": "pkx2",
          "type": "uint256"
        },
        {
          "name": "pky1",
          "type": "uint256"
        },
        {
          "name": "pky2",
          "type": "uint256"
        },
        {
          "name": "ip_addr",
          "type": "uint32"
        }
      ],
      "name": "addScaleNode",
      "outputs": [],
      "payable": false,
      "stateMutability": "nonpayable",
      "type": "function"
    },
    {
      "constant": true,
      "inputs": [],
      "name": "scaleNodesCount",
      "outputs": [
        {
          "name": "num_scale",
          "type": "uint256"
        }
      ],
      "payable": false,
      "stateMutability": "view",
      "type": "function"
    },
    {
      "constant": true,
      "inputs": [
        {
          "name": "sid",
          "type": "uint256"
        }
      ],
      "name": "getCurrentHash",
      "outputs": [
        {
          "name": "currentHash",
          "type": "bytes32"
        }
      ],
      "payable": false,
      "stateMutability": "view",
      "type": "function"
    },
    {
      "constant": true,
      "inputs": [
        {
          "name": "sid",
          "type": "uint256"
        }
      ],
      "name": "getBlockID",
      "outputs": [
        {
          "name": "bid",
          "type": "uint256"
        }
      ],
      "payable": false,
      "stateMutability": "view",
      "type": "function"
    },
    {
      "constant": false,
      "inputs": [
        {
          "name": "block",
          "type": "string"
        },
        {
          "name": "sig",
          "type": "bytes"
        }
      ],
      "name": "recoverSigner",
      "outputs": [
        {
          "name": "signer_address",
          "type": "address"
        }
      ],
      "payable": false,
      "stateMutability": "nonpayable",
      "type": "function"
    },
    {
      "constant": false,
      "inputs": [
        {
          "name": "side_chain_block_header",
          "type": "string"
        },
        {
          "name": "signature",
          "type": "bytes"
        },
        {
          "name": "new_block_id",
          "type": "uint256"
        },
        {
          "name": "sid",
          "type": "uint256"
        }
      ],
      "name": "proposeBlock",
      "outputs": [],
      "payable": false,
      "stateMutability": "nonpayable",
      "type": "function"
    },
    {
      "constant": false,
      "inputs": [
        {
          "name": "message",
          "type": "bytes"
        },
        {
          "name": "sigx",
          "type": "uint256"
        },
        {
          "name": "sigy",
          "type": "uint256"
        },
        {
          "name": "pkx1",
          "type": "uint256"
        },
        {
          "name": "pkx2",
          "type": "uint256"
        },
        {
          "name": "pky1",
          "type": "uint256"
        },
        {
          "name": "pky2",
          "type": "uint256"
        }
      ],
      "name": "verifyBLS",
      "outputs": [
        {
          "name": "",
          "type": "bool"
        }
      ],
      "payable": false,
      "stateMutability": "nonpayable",
      "type": "function"
    },
    {
      "constant": false,
      "inputs": [
        {
          "name": "block_header",
          "type": "bytes"
        },
        {
          "name": "sigx",
          "type": "uint256"
        },
        {
          "name": "sigy",
          "type": "uint256"
        },
        {
          "name": "bitset",
          "type": "uint256"
        }
      ],
      "name": "submitVote",
      "outputs": [],
      "payable": false,
      "stateMutability": "nonpayable",
      "type": "function"
    }
  ],
  "bytecode": "0x60806040523480156200001157600080fd5b50604051604080620033518339810180604052620000339190810190620004fb565b600081600660006101000a81548161ffff021916908361ffff160217905550600090506080604051908101604052808473ffffffffffffffffffffffffffffffffffffffff1681526020016200009762000307640100000000026401000000009004565b8152602001600063ffffffff16815260200160008152506000808573ffffffffffffffffffffffffffffffffffffffff1673ffffffffffffffffffffffffffffffffffffffff16815260200190815260200160002060008201518160000160006101000a81548173ffffffffffffffffffffffffffffffffffffffff021916908373ffffffffffffffffffffffffffffffffffffffff16021790555060208201518160010160008201518160000190600262000155929190620003d3565b506020820151816002019060026200016f929190620003d3565b50505060408201518160050160006101000a81548163ffffffff021916908363ffffffff1602179055506060820151816006015590505060026000808573ffffffffffffffffffffffffffffffffffffffff1673ffffffffffffffffffffffffffffffffffffffff168152602001908152602001600020908060018154018082558091505090600182039060005260206000209060070201600090919290919091506000820160009054906101000a900473ffffffffffffffffffffffffffffffffffffffff168160000160006101000a81548173ffffffffffffffffffffffffffffffffffffffff021916908373ffffffffffffffffffffffffffffffffffffffff160217905550600182018160010160008201816000019060026200029892919062000418565b506002820181600201906002620002b192919062000418565b5050506005820160009054906101000a900463ffffffff168160050160006101000a81548163ffffffff021916908363ffffffff160217905550600682015481600601555050506001810190505050506200056a565b620003116200045a565b604080519081016040528060408051908101604052807f198e9393920d483a7260bfb731fb5d25f1aa493335a9e71297e485b7aef312c281526020017f1800deef121f1e76426a00665e5c4479674322d4f75edadd46debd5cd992f6ed815250815260200160408051908101604052807f090689d0585ff075ec9e99ad690c3395bc4b313370b38ef355acdadcd122975b81526020017f12c85ea5db8c6deb4aab71808dcb408fe3d1e7690c43d37b4ce6cc0166fa7daa815250815250905090565b826002810192821562000405579160200282015b8281111562000404578251825591602001919060010190620003e7565b5b50905062000414919062000485565b5090565b826002810192821562000447579182015b828111156200044657825482559160010191906001019062000429565b5b50905062000456919062000485565b5090565b60806040519081016040528062000470620004ad565b81526020016200047f620004ad565b81525090565b620004aa91905b80821115620004a65760008160009055506001016200048c565b5090565b90565b6040805190810160405280600290602082028038833980820191505090505090565b6000620004dd82516200053c565b905092915050565b6000620004f382516200055c565b905092915050565b600080604083850312156200050f57600080fd5b60006200051f85828601620004cf565b92505060206200053285828601620004e5565b9150509250929050565b600073ffffffffffffffffffffffffffffffffffffffff82169050919050565b600061ffff82169050919050565b612dd7806200057a6000396000f3006080604052600436106100f0576000357c0100000000000000000000000000000000000000000000000000000000900463ffffffff168062fd4984146100f557806303b8fea7146101325780631e5172a8146101725780633738e1fc1461019b5780633bfda7b6146101c45780633f5d07af146102015780633f92958f1461023e57806342cde4e81461027b578063525e1460146102a65780636414d148146102d157806377d57315146103115780637fa774621461033a578063839f013014610379578063b8146e87146103b6578063b941e509146103f5578063c46e34f71461041e578063fc922e0714610447575b600080fd5b34801561010157600080fd5b5061011c60048036036101179190810190612724565b610484565b60405161012991906129d3565b60405180910390f35b34801561013e57600080fd5b5061015960048036036101549190810190612823565b61060a565b60405161016994939291906129ee565b60405180910390f35b34801561017e57600080fd5b506101996004803603610194919081019061250f565b61070d565b005b3480156101a757600080fd5b506101c260048036036101bd9190810190612790565b6108a5565b005b3480156101d057600080fd5b506101eb60048036036101e6919081019061266e565b6109b1565b6040516101f89190612a6a565b60405180910390f35b34801561020d57600080fd5b5061022860048036036102239190810190612823565b610a57565b6040516102359190612a85565b60405180910390f35b34801561024a57600080fd5b5061026560048036036102609190810190612823565b610a7a565b6040516102729190612b7e565b60405180910390f35b34801561028757600080fd5b50610290610a9d565b60405161029d9190612b63565b60405180910390f35b3480156102b257600080fd5b506102bb610ab1565b6040516102c89190612b7e565b60405180910390f35b3480156102dd57600080fd5b506102f860048036036102f3919081019061245d565b610abe565b60405161030894939291906129ee565b60405180910390f35b34801561031d57600080fd5b5061033860048036036103339190810190612486565b610bb2565b005b34801561034657600080fd5b50610361600480360361035c919081019061245d565b611025565b60405161037093929190612a33565b60405180910390f35b34801561038557600080fd5b506103a0600480360361039b9190810190612823565b61107f565b6040516103ad9190612a85565b60405180910390f35b3480156103c257600080fd5b506103dd60048036036103d89190810190612823565b6110a2565b6040516103ec93929190612ae5565b60405180910390f35b34801561040157600080fd5b5061041c600480360361041791908101906125f3565b611173565b005b34801561042a57600080fd5b506104456004803603610440919081019061255e565b6117cb565b005b34801561045357600080fd5b5061046e60048036036104699190810190612823565b611992565b60405161047b9190612b7e565b60405180910390f35b600060606000806000806040805190810160405280601c81526020017f19457468657265756d205369676e6564204d6573736167653a0a333200000000815250945084886040518082805190602001908083835b6020831015156104fd57805182526020820191506020810190506020830392506104d8565b6001836020036101000a03801982511681845116808217855250505050505090500191505060405180910390206040518083805190602001908083835b60208310151561055f578051825260208201915060208101905060208303925061053a565b6001836020036101000a038019825116818451168082178552505050505050905001826000191660001916815260200192505050604051809103902093506105a6876119b5565b925092509250600184848484604051600081526020016040526040516105cf9493929190612aa0565b60206040516020810390808403906000865af11580156105f3573d6000803e3d6000fd5b505050602060405103519550505050505092915050565b60028181548110151561061957fe5b90600052602060002090600702016000915090508060000160009054906101000a900473ffffffffffffffffffffffffffffffffffffffff1690806001016040805190810160405290816000820160028060200260405190810160405280929190826002801561069e576020028201915b81548152602001906001019080831161068a575b50505050508152602001600282016002806020026040519081016040528092919082600280156106e3576020028201915b8154815260200190600101908083116106cf575b505050505081525050908060050160009054906101000a900463ffffffff16908060060154905084565b80600160003373ffffffffffffffffffffffffffffffffffffffff1673ffffffffffffffffffffffffffffffffffffffff1681526020019081526020016000206001015414151561075d57600080fd5b80600160008573ffffffffffffffffffffffffffffffffffffffff1673ffffffffffffffffffffffffffffffffffffffff16815260200190815260200160002060010154141515156107ae57600080fd5b6060604051908101604052808473ffffffffffffffffffffffffffffffffffffffff1681526020018363ffffffff16815260200182815250600160008573ffffffffffffffffffffffffffffffffffffffff1673ffffffffffffffffffffffffffffffffffffffff16815260200190815260200160002060008201518160000160006101000a81548173ffffffffffffffffffffffffffffffffffffffff021916908373ffffffffffffffffffffffffffffffffffffffff16021790555060208201518160000160146101000a81548163ffffffff021916908363ffffffff16021790555060408201518160010155905050505050565b60006108b18585610484565b905081600160008373ffffffffffffffffffffffffffffffffffffffff1673ffffffffffffffffffffffffffffffffffffffff1681526020019081526020016000206001015414151561090357600080fd5b82600160048481548110151561091557fe5b90600052602060002001540114151561092d57600080fd5b60056060604051908101604052808781526020018481526020018581525090806001815401808255809150509060018203906000526020600020906003020160009091929091909150600082015181600001908051906020019061099292919061204b565b5060208201518160010155604082015181600201555050505050505050565b60006109bb6120cb565b6109c36120e5565b6109cb6120cb565b60408051908101604052808b81526020018a8152509250604080519081016040528060408051908101604052808b81526020018a81525081526020016040805190810160405280898152602001888152508152509150610a2a8b6119fc565b9050610a47610a3884611a88565b610a40611b23565b8385611bed565b9350505050979650505050505050565b600381815481101515610a6657fe5b906000526020600020016000915090505481565b6000600482815481101515610a8b57fe5b90600052602060002001549050919050565b600660009054906101000a900461ffff1681565b6000600280549050905090565b60006020528060005260406000206000915090508060000160009054906101000a900473ffffffffffffffffffffffffffffffffffffffff16908060010160408051908101604052908160008201600280602002604051908101604052809291908260028015610b43576020028201915b815481526020019060010190808311610b2f575b5050505050815260200160028201600280602002604051908101604052809291908260028015610b88576020028201915b815481526020019060010190808311610b74575b505050505081525050908060050160009054906101000a900463ffffffff16908060060154905084565b60008073ffffffffffffffffffffffffffffffffffffffff166000803373ffffffffffffffffffffffffffffffffffffffff1673ffffffffffffffffffffffffffffffffffffffff16815260200190815260200160002060000160009054906101000a900473ffffffffffffffffffffffffffffffffffffffff1673ffffffffffffffffffffffffffffffffffffffff1614151515610c86576040517f08c379a0000000000000000000000000000000000000000000000000000000008152600401610c7d90612b43565b60405180910390fd5b600073ffffffffffffffffffffffffffffffffffffffff166000808973ffffffffffffffffffffffffffffffffffffffff1673ffffffffffffffffffffffffffffffffffffffff16815260200190815260200160002060000160009054906101000a900473ffffffffffffffffffffffffffffffffffffffff1673ffffffffffffffffffffffffffffffffffffffff16141515610d58576040517f08c379a0000000000000000000000000000000000000000000000000000000008152600401610d4f90612b23565b60405180910390fd5b60028054905090506080604051908101604052808873ffffffffffffffffffffffffffffffffffffffff168152602001604080519081016040528060408051908101604052808b81526020018a815250815260200160408051908101604052808981526020018881525081525081526020018363ffffffff168152602001828152506000808973ffffffffffffffffffffffffffffffffffffffff1673ffffffffffffffffffffffffffffffffffffffff16815260200190815260200160002060008201518160000160006101000a81548173ffffffffffffffffffffffffffffffffffffffff021916908373ffffffffffffffffffffffffffffffffffffffff160217905550602082015181600101600082015181600001906002610e7f92919061210c565b50602082015181600201906002610e9792919061210c565b50505060408201518160050160006101000a81548163ffffffff021916908363ffffffff1602179055506060820151816006015590505060026000808973ffffffffffffffffffffffffffffffffffffffff1673ffffffffffffffffffffffffffffffffffffffff168152602001908152602001600020908060018154018082558091505090600182039060005260206000209060070201600090919290919091506000820160009054906101000a900473ffffffffffffffffffffffffffffffffffffffff168160000160006101000a81548173ffffffffffffffffffffffffffffffffffffffff021916908373ffffffffffffffffffffffffffffffffffffffff16021790555060018201816001016000820181600001906002610fbe92919061214c565b506002820181600201906002610fd592919061214c565b5050506005820160009054906101000a900463ffffffff168160050160006101000a81548163ffffffff021916908363ffffffff1602179055506006820154816006015550505050505050505050565b60016020528060005260406000206000915090508060000160009054906101000a900473ffffffffffffffffffffffffffffffffffffffff16908060000160149054906101000a900463ffffffff16908060010154905083565b600060038281548110151561109057fe5b90600052602060002001549050919050565b6005818154811015156110b157fe5b9060005260206000209060030201600091509050806000018054600181600116156101000203166002900480601f01602080910402602001604051908101604052809291908181526020018280546001816001161561010002031660029004801561115d5780601f106111325761010080835404028352916020019161115d565b820191906000526020600020905b81548152906001019060200180831161114057829003601f168201915b5050505050908060010154908060020154905083565b60008060008060006060806111866120cb565b60008073ffffffffffffffffffffffffffffffffffffffff166000803373ffffffffffffffffffffffffffffffffffffffff1673ffffffffffffffffffffffffffffffffffffffff16815260200190815260200160002060000160009054906101000a900473ffffffffffffffffffffffffffffffffffffffff1673ffffffffffffffffffffffffffffffffffffffff161415151561122457600080fd5b6000985060009750600096505b6005805490508710156113c9578c5160058881548110151561124f57fe5b906000526020600020906003020160000180546001816001161561010002031660029004905014801561137257508c6040518082805190602001908083835b6020831015156112b3578051825260208201915060208101905060208303925061128e565b6001836020036101000a0380198251168184511680821785525050505050509050019150506040518091039020600019166005888154811015156112f357fe5b9060005260206000209060030201600001604051808280546001816001161561010002031660029004801561135f5780601f1061133d57610100808354040283529182019161135f565b820191906000526020600020905b81548152906001019060200180831161134b575b5050915050604051809103902060001916145b156113be5760058781548110151561138657fe5b90600052602060002090600302016001015498506005878154811015156113a957fe5b90600052602060002090600302016002015497505b866001019650611231565b6000891115156113d857600080fd5b60019650899550600094505b600086111561141d5760016002878115156113fb57fe5b061415611409576001850194505b60028681151561141557fe5b0495506113e4565b8460405190808252806020026020018201604052801561145757816020015b611444612189565b81526020019060019003908161143c5790505b5093508460405190808252806020026020018201604052801561149457816020015b6114816121a3565b8152602001906001900390816114795790505b5092506114b460408051908101604052808e81526020018d815250611a88565b8460008151811015156114c357fe5b906020019060200201819052506114d8611b23565b8360008151811015156114e757fe5b906020019060200201819052506114fd8d6119fc565b91508995505b600086111561162857600160028781151561151a57fe5b06141561160e5781848881518110151561153057fe5b9060200190602002018190525060028781548110151561154c57fe5b9060005260206000209060070201600101604080519081016040529081600082016002806020026040519081016040528092919082600280156115a4576020028201915b815481526020019060010190808311611590575b50505050508152602001600282016002806020026040519081016040528092919082600280156115e9576020028201915b8154815260200190600101908083116115d5575b505050505081525050838881518110151561160057fe5b906020019060200201819052505b60018701965060028681151561162057fe5b049550611503565b6116328484611cf8565b151561163d57600080fd5b600260038a81548110151561164e57fe5b906000526020600020015460028f6040518082805190602001908083835b602083101515611691578051825260208201915060208101905060208303925061166c565b6001836020036101000a0380198251168184511680821785525050505050509050019150506020604051808303816000865af11580156116d5573d6000803e3d6000fd5b5050506040513d601f19601f820116820180604052506116f891908101906125ca565b6040518083600019166000191681526020018260001916600019168152602001925050506020604051808303816000865af115801561173b573d6000803e3d6000fd5b5050506040513d601f19601f8201168201806040525061175e91908101906125ca565b90508060038a81548110151561177057fe5b906000526020600020018160001916905550600160048a81548110151561179357fe5b90600052602060002001540160048a8154811015156117ae57fe5b906000526020600020018190555050505050505050505050505050565b6000806004600090806001815401808255809150509060018203906000526020600020016000909192909190915055506003600090806001815401808255809150509060018203906000526020600020016000909192600102909190915090600019169055506004805490509150600090505b835181101561198c57606060405190810160405280858381518110151561186157fe5b9060200190602002015173ffffffffffffffffffffffffffffffffffffffff168152602001848381518110151561189457fe5b9060200190602002015163ffffffff168152602001600184038152506001600086848151811015156118c257fe5b9060200190602002015173ffffffffffffffffffffffffffffffffffffffff1673ffffffffffffffffffffffffffffffffffffffff16815260200190815260200160002060008201518160000160006101000a81548173ffffffffffffffffffffffffffffffffffffffff021916908373ffffffffffffffffffffffffffffffffffffffff16021790555060208201518160000160146101000a81548163ffffffff021916908363ffffffff1602179055506040820151816001015590505080600101905061183e565b50505050565b6004818154811015156119a157fe5b906000526020600020016000915090505481565b6000806000604184511415156119ca57600080fd5b6020840151915060408401519050606084015160001a9250601b8360ff1610156119f557601b830192505b9193909250565b611a046120cb565b6000826040518082805190602001908083835b602083101515611a3c5780518252602082019150602081019050602083039250611a17565b6001836020036101000a0380198251168184511680821785525050505050509050019150506040518091039020600190049050611a80611a7a611f8b565b82611faf565b915050919050565b611a906120cb565b60007f30644e72e131a029b85045b68181585d97816a916871ca8d3c208c16d87cfd47905060008360000151148015611acd575060008360200151145b15611af05760408051908101604052806000815260200160008152509150611b1d565b604080519081016040528084600001518152602001828560200151811515611b1457fe5b06830381525091505b50919050565b611b2b6120e5565b604080519081016040528060408051908101604052807f198e9393920d483a7260bfb731fb5d25f1aa493335a9e71297e485b7aef312c281526020017f1800deef121f1e76426a00665e5c4479674322d4f75edadd46debd5cd992f6ed815250815260200160408051908101604052807f090689d0585ff075ec9e99ad690c3395bc4b313370b38ef355acdadcd122975b81526020017f12c85ea5db8c6deb4aab71808dcb408fe3d1e7690c43d37b4ce6cc0166fa7daa815250815250905090565b60006060806002604051908082528060200260200182016040528015611c2d57816020015b611c1a612189565b815260200190600190039081611c125790505b5091506002604051908082528060200260200182016040528015611c6b57816020015b611c586121a3565b815260200190600190039081611c505790505b50905086826000815181101515611c7e57fe5b9060200190602002018190525084826001815181101515611c9b57fe5b9060200190602002018190525085816000815181101515611cb857fe5b9060200190602002018190525083816001815181101515611cd557fe5b90602001906020020181905250611cec8282611cf8565b92505050949350505050565b600080600060606000611d096121ca565b600087518951141515611d1b57600080fd5b8851955060068602945084604051908082528060200260200182016040528015611d545781602001602082028038833980820191505090505b509350600092505b85831015611f31578883815181101515611d7257fe5b90602001906020020151600001518460006006860201815181101515611d9457fe5b90602001906020020181815250508883815181101515611db057fe5b90602001906020020151602001518460016006860201815181101515611dd257fe5b90602001906020020181815250508783815181101515611dee57fe5b90602001906020020151600001516000600281101515611e0a57fe5b60200201518460026006860201815181101515611e2357fe5b90602001906020020181815250508783815181101515611e3f57fe5b90602001906020020151600001516001600281101515611e5b57fe5b60200201518460036006860201815181101515611e7457fe5b90602001906020020181815250508783815181101515611e9057fe5b90602001906020020151602001516000600281101515611eac57fe5b60200201518460046006860201815181101515611ec557fe5b90602001906020020181815250508783815181101515611ee157fe5b90602001906020020151602001516001600281101515611efd57fe5b60200201518460056006860201815181101515611f1657fe5b90602001906020020181815250508280600101935050611d5c565b6020826020870260208701600060086107d05a03f190508060008114611f5657611f58565bfe5b50801515611f6557600080fd5b6000826000600181101515611f7657fe5b60200201511415965050505050505092915050565b611f936120cb565b6040805190810160405280600181526020016002815250905090565b611fb76120cb565b611fbf6121ed565b60008460000151826000600381101515611fd557fe5b6020020181815250508460200151826001600381101515611ff257fe5b6020020181815250508382600260038110151561200b57fe5b602002018181525050606083608084600060076107d05a03f19050806000811461203457612036565bfe5b5080151561204357600080fd5b505092915050565b828054600181600116156101000203166002900490600052602060002090601f016020900481019282601f1061208c57805160ff19168380011785556120ba565b828001600101855582156120ba579182015b828111156120b957825182559160200191906001019061209e565b5b5090506120c79190612210565b5090565b604080519081016040528060008152602001600081525090565b6080604051908101604052806120f9612235565b8152602001612106612235565b81525090565b826002810192821561213b579160200282015b8281111561213a57825182559160200191906001019061211f565b5b5090506121489190612210565b5090565b8260028101928215612178579182015b8281111561217757825482559160010191906001019061215c565b5b5090506121859190612210565b5090565b604080519081016040528060008152602001600081525090565b6080604051908101604052806121b7612235565b81526020016121c4612235565b81525090565b602060405190810160405280600190602082028038833980820191505090505090565b606060405190810160405280600390602082028038833980820191505090505090565b61223291905b8082111561222e576000816000905550600101612216565b5090565b90565b6040805190810160405280600290602082028038833980820191505090505090565b60006122638235612d06565b905092915050565b600082601f830112151561227e57600080fd5b813561229161228c82612bc6565b612b99565b915081818352602084019350602081019050838560208402820111156122b657600080fd5b60005b838110156122e657816122cc8882612257565b8452602084019350602083019250506001810190506122b9565b5050505092915050565b600082601f830112151561230357600080fd5b813561231661231182612bee565b612b99565b9150818183526020840193506020810190508385602084028201111561233b57600080fd5b60005b8381101561236b57816123518882612449565b84526020840193506020830192505060018101905061233e565b5050505092915050565b60006123818251612d26565b905092915050565b600082601f830112151561239c57600080fd5b81356123af6123aa82612c16565b612b99565b915080825260208301602083018583830111156123cb57600080fd5b6123d6838284612d4a565b50505092915050565b600082601f83011215156123f257600080fd5b813561240561240082612c42565b612b99565b9150808252602083016020830185838301111561242157600080fd5b61242c838284612d4a565b50505092915050565b60006124418235612d30565b905092915050565b60006124558235612d3a565b905092915050565b60006020828403121561246f57600080fd5b600061247d84828501612257565b91505092915050565b60008060008060008060c0878903121561249f57600080fd5b60006124ad89828a01612257565b96505060206124be89828a01612435565b95505060406124cf89828a01612435565b94505060606124e089828a01612435565b93505060806124f189828a01612435565b92505060a061250289828a01612449565b9150509295509295509295565b60008060006060848603121561252457600080fd5b600061253286828701612257565b935050602061254386828701612449565b925050604061255486828701612435565b9150509250925092565b6000806040838503121561257157600080fd5b600083013567ffffffffffffffff81111561258b57600080fd5b6125978582860161226b565b925050602083013567ffffffffffffffff8111156125b457600080fd5b6125c0858286016122f0565b9150509250929050565b6000602082840312156125dc57600080fd5b60006125ea84828501612375565b91505092915050565b6000806000806080858703121561260957600080fd5b600085013567ffffffffffffffff81111561262357600080fd5b61262f87828801612389565b945050602061264087828801612435565b935050604061265187828801612435565b925050606061266287828801612435565b91505092959194509250565b600080600080600080600060e0888a03121561268957600080fd5b600088013567ffffffffffffffff8111156126a357600080fd5b6126af8a828b01612389565b97505060206126c08a828b01612435565b96505060406126d18a828b01612435565b95505060606126e28a828b01612435565b94505060806126f38a828b01612435565b93505060a06127048a828b01612435565b92505060c06127158a828b01612435565b91505092959891949750929550565b6000806040838503121561273757600080fd5b600083013567ffffffffffffffff81111561275157600080fd5b61275d858286016123df565b925050602083013567ffffffffffffffff81111561277a57600080fd5b61278685828601612389565b9150509250929050565b600080600080608085870312156127a657600080fd5b600085013567ffffffffffffffff8111156127c057600080fd5b6127cc878288016123df565b945050602085013567ffffffffffffffff8111156127e957600080fd5b6127f587828801612389565b935050604061280687828801612435565b925050606061281787828801612435565b91505092959194509250565b60006020828403121561283557600080fd5b600061284384828501612435565b91505092915050565b61285581612c9b565b82525050565b61286481612c78565b61286d82612c6e565b60005b8281101561289f576128838583516129a6565b61288c82612c8e565b9150602085019450600181019050612870565b5050505050565b6128af81612cbb565b82525050565b6128be81612cc7565b82525050565b60006128cf82612c83565b8084526128e3816020860160208601612d59565b6128ec81612d8c565b602085010191505092915050565b6000600e82527f616c7265616479206a6f696e65640000000000000000000000000000000000006020830152604082019050919050565b6000601482527f6e6f74207065726d697474656420746f206164640000000000000000000000006020830152604082019050919050565b60808201600082015161297e600085018261285b565b506020820151612991604085018261285b565b50505050565b6129a081612cd1565b82525050565b6129af81612cdf565b82525050565b6129be81612ce9565b82525050565b6129cd81612cf9565b82525050565b60006020820190506129e8600083018461284c565b92915050565b600060e082019050612a03600083018761284c565b612a106020830186612968565b612a1d60a08301856129b5565b612a2a60c08301846129a6565b95945050505050565b6000606082019050612a48600083018661284c565b612a5560208301856129b5565b612a6260408301846129a6565b949350505050565b6000602082019050612a7f60008301846128a6565b92915050565b6000602082019050612a9a60008301846128b5565b92915050565b6000608082019050612ab560008301876128b5565b612ac260208301866129c4565b612acf60408301856128b5565b612adc60608301846128b5565b95945050505050565b60006060820190508181036000830152612aff81866128c4565b9050612b0e60208301856129a6565b612b1b60408301846129a6565b949350505050565b60006020820190508181036000830152612b3c816128fa565b9050919050565b60006020820190508181036000830152612b5c81612931565b9050919050565b6000602082019050612b786000830184612997565b92915050565b6000602082019050612b9360008301846129a6565b92915050565b6000604051905081810181811067ffffffffffffffff82111715612bbc57600080fd5b8060405250919050565b600067ffffffffffffffff821115612bdd57600080fd5b602082029050602081019050919050565b600067ffffffffffffffff821115612c0557600080fd5b602082029050602081019050919050565b600067ffffffffffffffff821115612c2d57600080fd5b601f19601f8301169050602081019050919050565b600067ffffffffffffffff821115612c5957600080fd5b601f19601f8301169050602081019050919050565b6000819050919050565b600060029050919050565b600081519050919050565b6000602082019050919050565b600073ffffffffffffffffffffffffffffffffffffffff82169050919050565b60008115159050919050565b6000819050919050565b600061ffff82169050919050565b6000819050919050565b600063ffffffff82169050919050565b600060ff82169050919050565b600073ffffffffffffffffffffffffffffffffffffffff82169050919050565b6000819050919050565b6000819050919050565b600063ffffffff82169050919050565b82818337600083830152505050565b60005b83811015612d77578082015181840152602081019050612d5c565b83811115612d86576000848401525b50505050565b6000601f19601f83011690509190505600a265627a7a723058200419650502f9cea013762c430690532e3e719c22ec36e58f0e0d0b858f9027b86c6578706572696d656e74616cf50037",
  "source": "pragma solidity ^0.4.24;\npragma experimental ABIEncoderV2;\n\ncontract ScaleChain {\n    mapping(address => ScaleNode) public scale_nodes;\n    mapping(address => SideNode) public side_nodes;\n    ScaleNode[] public scale_id;\n    bytes32[] public curr_hash;\n    uint[] public block_id;\n    UnconfirmedBlock[] public buffer;\n    uint16 public threshold;\n\n    struct ScaleNode {\n        address eth_pk;\n        G2Point pub_key;\n        uint32 ip_addr;\n        uint index;\n    }\n\n    struct SideNode {\n        address eth_pk;\n        uint32 ip_addr;\n        uint sid;\n    }\n\n    struct UnconfirmedBlock {\n        string header;\n        uint sid;\n        uint bid;\n    }\n\n    struct G1Point {\n        uint X;\n        uint Y;\n    }\n\n    struct G2Point {\n        uint[2] X;\n        uint[2] Y;\n    }\n\n    function P1() internal returns (G1Point) {\n        return G1Point(1, 2);\n    }\n\n    function P2() internal returns (G2Point) {\n        return G2Point(\n            [11559732032986387107991004021392285783925812861821192530917403151452391805634,\n            10857046999023057135944570762232829481370756359578518086990519993285655852781],\n\n            [4082367875863433681332203403145435568316851327593401208105741076214120093531,\n            8495653923123431417604973247489272438418190587263600148770280649306958101930]\n        );\n    }\n\n    constructor(address admin_address, uint16 t) public {\n        threshold = t;\n        uint index = 0;\n        scale_nodes[admin_address] = ScaleNode({\n            eth_pk: admin_address,\n            pub_key: P2(),\n            ip_addr: 0,\n            index: 0\n        });\n        scale_id.push(scale_nodes[admin_address]);\n        index += 1;\n    }\n\n    // Register a new side chain with initialized SideNode list\n    function addSideChain(address[] side_node_addresses, uint32[] ip_addrs) public {\n        block_id.push(0);\n        curr_hash.push(0);\n        uint chain_id = block_id.length;\n        for (uint i = 0; i < side_node_addresses.length; ++i) {\n            side_nodes[side_node_addresses[i]] = SideNode({\n                eth_pk: side_node_addresses[i],\n                ip_addr: ip_addrs[i],\n                sid: chain_id-1\n            });\n        }\n    }\n\n    // Current SideNode authorize new SideNode\n    // check msg.sender and not duplicate\n    function addSideNode(address new_side_node, uint32 ip_addr, uint sid) public {\n        require(side_nodes[msg.sender].sid == sid);\n        require(side_nodes[new_side_node].sid != sid);\n        side_nodes[new_side_node] = SideNode({\n            eth_pk: new_side_node,\n            ip_addr: ip_addr,\n            sid: sid\n        });\n    }\n\n    function addScaleNode(\n        address new_scale_node, \n        uint pkx1, uint pkx2, \n        uint pky1, uint pky2, \n        uint32 ip_addr) public {\n\n        require(scale_nodes[msg.sender].eth_pk != address(0), \"not permitted to add\");\n        require(scale_nodes[new_scale_node].eth_pk == address(0), \"already joined\");\n        uint i = scale_id.length;\n        scale_nodes[new_scale_node] = ScaleNode ({\n            eth_pk: new_scale_node,\n            pub_key: G2Point([pkx1, pkx2], [pky1, pky2]),\n            ip_addr: ip_addr,\n            index: i\n        });\n        scale_id.push(scale_nodes[new_scale_node]);\n    }\n\n    function scaleNodesCount() public view returns (uint num_scale) {\n        num_scale = scale_id.length;\n    }\n\n    function getCurrentHash(uint sid) public view\n        returns (bytes32 currentHash) {\n            currentHash = curr_hash[sid];\n    }\n\n    function getBlockID(uint sid) public view\n        returns (uint bid) {\n            bid = block_id[sid];\n    }\n\n    function splitSignature(bytes memory sig) internal pure returns (uint8 v, bytes32 r, bytes32 s) {\n        require(sig.length == 65);\n        assembly {\n            r := mload(add(sig, 32))\n            s := mload(add(sig, 64))\n            v := byte(0, mload(add(sig, 96)))\n        }\n        if (v < 27) v = v + 27;\n    }\n    \n    function recoverSigner(string block, bytes sig) returns (address signer_address) {\n        bytes memory prefix = \"\\x19Ethereum Signed Message:\\n32\";\n        bytes32 prefixedHash = sha3(prefix, sha3(block));\n        (uint8 v, bytes32 r, bytes32 s) = splitSignature(sig);\n        signer_address = ecrecover(prefixedHash, v, r, s);\n    }\n    \n    function proposeBlock(string side_chain_block_header, bytes signature, uint new_block_id, uint sid) public {\n        \n        // 1.check signed by one of sideNode within specific side chain\n        address signer_address = recoverSigner(side_chain_block_header, signature);\n        require (side_nodes[signer_address].sid == sid);\n\n        //Check whether the new_block_id = block_id + 1. If not, reject the block. \n        require (block_id[sid] + 1 == new_block_id);\n\n        // 2. add to buffer\n        buffer.push(UnconfirmedBlock({\n            header: side_chain_block_header,\n            sid: sid,\n            bid: new_block_id\n        }));\n    }\n\n    function verifyBLS(bytes message, uint sigx, uint sigy, uint pkx1, uint pkx2, uint pky1, uint pky2) returns (bool) {\n        G1Point memory signature = G1Point(sigx, sigy);\n        G2Point memory pub_key = G2Point([pkx1, pkx2], [pky1, pky2]);\n        G1Point memory h = hashToG1(message);\n        return pairing2(negate(signature), P2(), h, pub_key);\n    }\n\n    function submitVote(bytes block_header, uint sigx, uint sigy, uint bitset) public {\n\n        // 1.check signed by one of scaleNodes\n        require(scale_nodes[msg.sender].eth_pk != address(0));\n        uint sid = 0;\n        uint bid = 0;\n\n        // 2.check the block header is in the buffer\n        for (uint i = 0; i < buffer.length; ++i) {\n            if (bytes(buffer[i].header).length == block_header.length && keccak256(buffer[i].header) == keccak256(block_header)) {\n                sid = buffer[i].sid;\n                bid = buffer[i].bid;\n            }\n        }\n        require(sid > 0);\n\n        // 3. check signature aggregation\n        i = 1;\n        uint bs = bitset;\n        uint cnt = 0;\n        while (bs > 0) {\n            if (bs % 2 == 1) {\n                cnt += 1;\n            }\n            bs /= 2;\n        }\n        G1Point[] memory a = new G1Point[](cnt);\n        G2Point[] memory b = new G2Point[](cnt);\n        a[0] = negate(G1Point(sigx, sigy));\n        b[0] = P2();\n        G1Point memory h0 = hashToG1(block_header);\n        bs = bitset;\n        while (bs > 0) {\n            if (bs % 2 == 1) {\n                a[i] = h0;\n                b[i] = scale_id[i].pub_key;\n            }\n            i += 1;\n            bs /= 2;\n        }\n        require(pairing(a, b));\n\n        // If pass, update hash\n        bytes32 new_hash = sha256(curr_hash[sid], sha256(block_header));\n        curr_hash[sid] = new_hash;\n        block_id[sid] = block_id[sid] + 1;\n\n\n    }\n\n\n\n      function pairing(G1Point[] p1, G2Point[] p2) internal returns (bool) {\n        require(p1.length == p2.length);\n        uint elements = p1.length;\n        uint inputSize = elements * 6;\n        uint[] memory input = new uint[](inputSize);\n\n        for (uint i = 0; i < elements; i++)\n        {\n            input[i * 6 + 0] = p1[i].X;\n            input[i * 6 + 1] = p1[i].Y;\n            input[i * 6 + 2] = p2[i].X[0];\n            input[i * 6 + 3] = p2[i].X[1];\n            input[i * 6 + 4] = p2[i].Y[0];\n            input[i * 6 + 5] = p2[i].Y[1];\n        }\n\n        uint[1] memory out;\n        bool success;\n\n        assembly {\n            success := call(sub(gas, 2000), 8, 0, add(input, 0x20), mul(inputSize, 0x20), out, 0x20)\n        // Use \"invalid\" to make gas estimation work\n            switch success case 0 {invalid}\n        }\n        require(success);\n        return out[0] != 0;\n    }\n\n    function pairing2(G1Point a1, G2Point a2, G1Point b1, G2Point b2) internal returns (bool) {\n        G1Point[] memory p1 = new G1Point[](2);\n        G2Point[] memory p2 = new G2Point[](2);\n        p1[0] = a1;\n        p1[1] = b1;\n        p2[0] = a2;\n        p2[1] = b2;\n        return pairing(p1, p2);\n    }\n\n    function hashToG1(bytes message) internal returns (G1Point) {\n        uint256 h = uint256(keccak256(message));\n        return mul(P1(), h);\n    }\n\n    function modPow(uint256 base, uint256 exponent, uint256 modulus) internal returns (uint256) {\n        uint256[6] memory input = [32, 32, 32, base, exponent, modulus];\n        uint256[1] memory result;\n        assembly {\n            if iszero(call(not(0), 0x05, 0, input, 0xc0, result, 0x20)) {\n                revert(0, 0)\n            }\n        }\n        return result[0];\n    }\n\n    /// @return the negation of p, i.e. p.add(p.negate()) should be zero.\n    function negate(G1Point p) internal returns (G1Point) {\n        // The prime q in the base field F_q for G1\n        uint q = 21888242871839275222246405745257275088696311157297823662689037894645226208583;\n        if (p.X == 0 && p.Y == 0)\n            return G1Point(0, 0);\n        return G1Point(p.X, q - (p.Y % q));\n    }\n\n    /// @return the sum of two points of G1\n    function add(G1Point p1, G1Point p2) internal returns (G1Point r) {\n        uint[4] memory input;\n        input[0] = p1.X;\n        input[1] = p1.Y;\n        input[2] = p2.X;\n        input[3] = p2.Y;\n        bool success;\n        assembly {\n            success := call(sub(gas, 2000), 6, 0, input, 0xc0, r, 0x60)\n        // Use \"invalid\" to make gas estimation work\n            switch success case 0 {invalid}\n        }\n        require(success);\n    }\n    /// @return the product of a point on G1 and a scalar, i.e.\n    /// p == p.mul(1) and p.add(p) == p.mul(2) for all points p.\n    function mul(G1Point p, uint s) internal returns (G1Point r) {\n        uint[3] memory input;\n        input[0] = p.X;\n        input[1] = p.Y;\n        input[2] = s;\n        bool success;\n        assembly {\n            success := call(sub(gas, 2000), 7, 0, input, 0x80, r, 0x60)\n        // Use \"invalid\" to make gas estimation work\n            switch success case 0 {invalid}\n        }\n        require(success);\n    }\n\n}\n",
  "sourcePath": "/Users/spy/ScaleChain/ScaleChain_v2/contracts/ScaleChain.sol",
  "compiler": {
    "name": "solc",
    "version": "0.4.24+commit.e67f0147.Emscripten.clang"
  },
  "schemaVersion": "3.0.19",
  "updatedAt": "2020-06-05T07:17:41.268Z",
  "networkType": "ethereum",
  "devdoc": {
    "methods": {}
  },
  "userdoc": {
    "methods": {}
  }
}