{
  "contractName": "ScaleChain",
  "abi": [
    {
      "constant": true,
      "inputs": [
        {
          "name": "",
          "type": "uint256"
        }
      ],
      "name": "curr_hash",
      "outputs": [
        {
          "name": "",
          "type": "bytes32"
        }
      ],
      "payable": false,
      "stateMutability": "view",
      "type": "function"
    },
    {
      "constant": true,
      "inputs": [
        {
          "name": "",
          "type": "uint256"
        },
        {
          "name": "",
          "type": "uint256"
        }
      ],
      "name": "signers",
      "outputs": [
        {
          "name": "",
          "type": "uint256"
        }
      ],
      "payable": false,
      "stateMutability": "view",
      "type": "function"
    },
    {
      "constant": true,
      "inputs": [
        {
          "name": "",
          "type": "uint256"
        }
      ],
      "name": "scale_nodes",
      "outputs": [
        {
          "name": "eth_addr",
          "type": "address"
        },
        {
          "name": "ip_addr",
          "type": "string"
        },
        {
          "name": "pkx1",
          "type": "uint256"
        },
        {
          "name": "pkx2",
          "type": "uint256"
        },
        {
          "name": "pky1",
          "type": "uint256"
        },
        {
          "name": "pky2",
          "type": "uint256"
        }
      ],
      "payable": false,
      "stateMutability": "view",
      "type": "function"
    },
    {
      "constant": true,
      "inputs": [
        {
          "name": "",
          "type": "uint256"
        }
      ],
      "name": "block_id",
      "outputs": [
        {
          "name": "",
          "type": "uint256"
        }
      ],
      "payable": false,
      "stateMutability": "view",
      "type": "function"
    },
    {
      "inputs": [
        {
          "name": "admin_addr",
          "type": "address"
        }
      ],
      "payable": false,
      "stateMutability": "nonpayable",
      "type": "constructor"
    },
    {
      "constant": false,
      "inputs": [
        {
          "name": "new_scale_node",
          "type": "address"
        },
        {
          "name": "ip_addr",
          "type": "string"
        },
        {
          "name": "pkx1",
          "type": "uint256"
        },
        {
          "name": "pkx2",
          "type": "uint256"
        },
        {
          "name": "pky1",
          "type": "uint256"
        },
        {
          "name": "pky2",
          "type": "uint256"
        }
      ],
      "name": "addScaleNode",
      "outputs": [],
      "payable": false,
      "stateMutability": "nonpayable",
      "type": "function"
    },
    {
      "constant": false,
      "inputs": [],
      "name": "addSideChain",
      "outputs": [],
      "payable": false,
      "stateMutability": "nonpayable",
      "type": "function"
    },
    {
      "constant": true,
      "inputs": [
        {
          "name": "id",
          "type": "uint256"
        }
      ],
      "name": "getScaleNode",
      "outputs": [
        {
          "name": "scale_node_address",
          "type": "address"
        }
      ],
      "payable": false,
      "stateMutability": "view",
      "type": "function"
    },
    {
      "constant": true,
      "inputs": [
        {
          "name": "addr",
          "type": "address"
        }
      ],
      "name": "getScaleID",
      "outputs": [
        {
          "name": "id",
          "type": "uint256"
        }
      ],
      "payable": false,
      "stateMutability": "view",
      "type": "function"
    },
    {
      "constant": true,
      "inputs": [
        {
          "name": "addr",
          "type": "address"
        }
      ],
      "name": "getScalePubKey",
      "outputs": [
        {
          "name": "",
          "type": "uint256"
        },
        {
          "name": "",
          "type": "uint256"
        },
        {
          "name": "",
          "type": "uint256"
        },
        {
          "name": "",
          "type": "uint256"
        }
      ],
      "payable": false,
      "stateMutability": "view",
      "type": "function"
    },
    {
      "constant": true,
      "inputs": [
        {
          "name": "sid",
          "type": "uint256"
        }
      ],
      "name": "getCurrentHash",
      "outputs": [
        {
          "name": "currentHash",
          "type": "bytes32"
        }
      ],
      "payable": false,
      "stateMutability": "view",
      "type": "function"
    },
    {
      "constant": true,
      "inputs": [
        {
          "name": "sid",
          "type": "uint256"
        }
      ],
      "name": "getBlockID",
      "outputs": [
        {
          "name": "bid",
          "type": "uint256"
        }
      ],
      "payable": false,
      "stateMutability": "view",
      "type": "function"
    },
    {
      "constant": true,
      "inputs": [
        {
          "name": "sid",
          "type": "uint256"
        },
        {
          "name": "bid",
          "type": "uint256"
        }
      ],
      "name": "getSigners",
      "outputs": [
        {
          "name": "bitset",
          "type": "uint256"
        }
      ],
      "payable": false,
      "stateMutability": "view",
      "type": "function"
    },
    {
      "constant": true,
      "inputs": [],
      "name": "sideChainsCount",
      "outputs": [
        {
          "name": "number_of_sideChains",
          "type": "uint256"
        }
      ],
      "payable": false,
      "stateMutability": "view",
      "type": "function"
    },
    {
      "constant": true,
      "inputs": [],
      "name": "scaleNodesCount",
      "outputs": [
        {
          "name": "number_of_scaleNodes",
          "type": "uint256"
        }
      ],
      "payable": false,
      "stateMutability": "view",
      "type": "function"
    },
    {
      "constant": false,
      "inputs": [
        {
          "name": "sid",
          "type": "uint256"
        }
      ],
      "name": "resetSideChain",
      "outputs": [],
      "payable": false,
      "stateMutability": "nonpayable",
      "type": "function"
    },
    {
      "constant": false,
      "inputs": [
        {
          "name": "block_header",
          "type": "bytes"
        },
        {
          "name": "sid",
          "type": "uint256"
        },
        {
          "name": "bid",
          "type": "uint256"
        },
        {
          "name": "sigx",
          "type": "uint256"
        },
        {
          "name": "sigy",
          "type": "uint256"
        },
        {
          "name": "bitset",
          "type": "uint256"
        }
      ],
      "name": "submitVote",
      "outputs": [],
      "payable": false,
      "stateMutability": "nonpayable",
      "type": "function"
    },
    {
      "constant": false,
      "inputs": [
        {
          "name": "message",
          "type": "bytes"
        },
        {
          "name": "sigx",
          "type": "uint256"
        },
        {
          "name": "sigy",
          "type": "uint256"
        },
        {
          "name": "pkx1",
          "type": "uint256"
        },
        {
          "name": "pkx2",
          "type": "uint256"
        },
        {
          "name": "pky1",
          "type": "uint256"
        },
        {
          "name": "pky2",
          "type": "uint256"
        }
      ],
      "name": "verifyBLS",
      "outputs": [
        {
          "name": "",
          "type": "bool"
        }
      ],
      "payable": false,
      "stateMutability": "nonpayable",
      "type": "function"
    },
    {
      "constant": false,
      "inputs": [
        {
          "name": "block",
          "type": "string"
        },
        {
          "name": "sig",
          "type": "bytes"
        }
      ],
      "name": "recoverSigner",
      "outputs": [
        {
          "name": "signer_address",
          "type": "address"
        }
      ],
      "payable": false,
      "stateMutability": "nonpayable",
      "type": "function"
    }
  ],
  "bytecode": "0x60806040527f198e9393920d483a7260bfb731fb5d25f1aa493335a9e71297e485b7aef312c26005557f1800deef121f1e76426a00665e5c4479674322d4f75edadd46debd5cd992f6ed6006557f090689d0585ff075ec9e99ad690c3395bc4b313370b38ef355acdadcd122975b6007557f12c85ea5db8c6deb4aab71808dcb408fe3d1e7690c43d37b4ce6cc0166fa7daa600855348015620000a157600080fd5b50604051602080620027ea8339810180604052620000c3919081019062000427565b600060c0604051908101604052808373ffffffffffffffffffffffffffffffffffffffff1681526020016040805190810160405280600981526020017f6c6f63616c686f7374000000000000000000000000000000000000000000000081525081526020016005548152602001600654815260200160075481526020016008548152509080600181540180825580915050906001820390600052602060002090600602016000909192909190915060008201518160000160006101000a81548173ffffffffffffffffffffffffffffffffffffffff021916908373ffffffffffffffffffffffffffffffffffffffff1602179055506020820151816001019080519060200190620001d692919062000310565b5060408201518160020155606082015181600301556080820151816004015560a082015181600501555050506000600160008373ffffffffffffffffffffffffffffffffffffffff1673ffffffffffffffffffffffffffffffffffffffff168152602001908152602001600020819055506200026062000267640100000000026401000000009004565b5062000473565b606060036000908060018154018082558091505090600182039060005260206000200160009091929091909150555060026000908060018154018082558091505090600182039060005260206000200160009091926001029091909150906000191690555060048190806001815401808255809150509060018203906000526020600020016000909192909190915090805190602001906200030b92919062000397565b505050565b828054600181600116156101000203166002900490600052602060002090601f016020900481019282601f106200035357805160ff191683800117855562000384565b8280016001018555821562000384579182015b828111156200038357825182559160200191906001019062000366565b5b509050620003939190620003e9565b5090565b828054828255906000526020600020908101928215620003d6579160200282015b82811115620003d5578251825591602001919060010190620003b8565b5b509050620003e59190620003e9565b5090565b6200040e91905b808211156200040a576000816000905550600101620003f0565b5090565b90565b60006200041f825162000453565b905092915050565b6000602082840312156200043a57600080fd5b60006200044a8482850162000411565b91505092915050565b600073ffffffffffffffffffffffffffffffffffffffff82169050919050565b61236780620004836000396000f3006080604052600436106100fb576000357c0100000000000000000000000000000000000000000000000000000000900463ffffffff168062fd49841461010057806317d7acda1461013d5780633bfda7b6146101665780633f5d07af146101a35780633f92958f146101e0578063488c3f251461021d578063495175f71461025a578063525e14601461029c578063839f0130146102c7578063891948531461030457806396477f7f14610341578063baba3dab1461036a578063bd877ca414610393578063c0978a7d146103be578063d382fb34146103fe578063daf6faa614610415578063e1bc81a214610452578063fc922e071461048f575b600080fd5b34801561010c57600080fd5b5061012760048036036101229190810190611f19565b6104cc565b604051610134919061206b565b60405180910390f35b34801561014957600080fd5b50610164600480360361015f9190810190611dc2565b610652565b005b34801561017257600080fd5b5061018d60048036036101889190810190611e63565b610bc3565b60405161019a91906120ee565b60405180910390f35b3480156101af57600080fd5b506101ca60048036036101c59190810190611f85565b610c69565b6040516101d79190612109565b60405180910390f35b3480156101ec57600080fd5b5061020760048036036102029190810190611f85565b610c8c565b6040516102149190612169565b60405180910390f35b34801561022957600080fd5b50610244600480360361023f9190810190611fae565b610caf565b6040516102519190612169565b60405180910390f35b34801561026657600080fd5b50610281600480360361027c9190810190611f85565b610cea565b60405161029396959493929190612086565b60405180910390f35b3480156102a857600080fd5b506102b1610ded565b6040516102be9190612169565b60405180910390f35b3480156102d357600080fd5b506102ee60048036036102e99190810190611f85565b610df9565b6040516102fb9190612109565b60405180910390f35b34801561031057600080fd5b5061032b60048036036103269190810190611ccf565b610e1c565b6040516103389190612169565b60405180910390f35b34801561034d57600080fd5b5061036860048036036103639190810190611cf8565b610e65565b005b34801561037657600080fd5b50610391600480360361038c9190810190611f85565b61113b565b005b34801561039f57600080fd5b506103a86111b4565b6040516103b59190612169565b60405180910390f35b3480156103ca57600080fd5b506103e560048036036103e09190810190611ccf565b6111c1565b6040516103f59493929190612184565b60405180910390f35b34801561040a57600080fd5b5061041361129f565b005b34801561042157600080fd5b5061043c60048036036104379190810190611fae565b611346565b6040516104499190612169565b60405180910390f35b34801561045e57600080fd5b5061047960048036036104749190810190611f85565b611381565b604051610486919061206b565b60405180910390f35b34801561049b57600080fd5b506104b660048036036104b19190810190611f85565b6113ca565b6040516104c39190612169565b60405180910390f35b600060606000806000806040805190810160405280601c81526020017f19457468657265756d205369676e6564204d6573736167653a0a333200000000815250945084886040518082805190602001908083835b6020831015156105455780518252602082019150602081019050602083039250610520565b6001836020036101000a03801982511681845116808217855250505050505090500191505060405180910390206040518083805190602001908083835b6020831015156105a75780518252602082019150602081019050602083039250610582565b6001836020036101000a038019825116818451168082178552505050505050905001826000191660001916815260200192505050604051809103902093506105ee876113ed565b925092509250600184848484604051600081526020016040526040516106179493929190612124565b60206040516020810390808403906000865af115801561063b573d6000803e3d6000fd5b505050602060405103519550505050505092915050565b60008061065d611a0b565b6060806000803373ffffffffffffffffffffffffffffffffffffffff166000600160003373ffffffffffffffffffffffffffffffffffffffff1673ffffffffffffffffffffffffffffffffffffffff168152602001908152602001600020548154811015156106c857fe5b906000526020600020906006020160000160009054906101000a900473ffffffffffffffffffffffffffffffffffffffff1673ffffffffffffffffffffffffffffffffffffffff1614151561071c57600080fd5b600160038d81548110151561072d57fe5b9060005260206000200154018b14151561074657600080fd5b600060028981151561075457fe5b0614151561076157600080fd5b60028881151561076d57fe5b049650600095505b60008711156107ae57600160028881151561078c57fe5b06141561079a576001860195505b6002878115156107a657fe5b049650610775565b6107b78d611434565b9450600186016040519080825280602002602001820160405280156107f657816020015b6107e3611a25565b8152602001906001900390816107db5790505b5093506001860160405190808252806020026020018201604052801561083657816020015b610823611a3f565b81526020019060019003908161081b5790505b50925061085660408051908101604052808c81526020018b8152506114c0565b84600081518110151561086557fe5b9060200190602002018190525061087a61155b565b83600081518110151561088957fe5b906020019060200201819052506002888115156108a257fe5b04965060019150600190505b60008711156109e15760016002888115156108c557fe5b0614156109c7578484828151811015156108db57fe5b906020019060200201819052506040805190810160405280604080519081016040528060008681548110151561090d57fe5b906000526020600020906006020160020154815260200160008681548110151561093357fe5b9060005260206000209060060201600301548152508152602001604080519081016040528060008681548110151561096757fe5b906000526020600020906006020160040154815260200160008681548110151561098d57fe5b90600052602060002090600602016005015481525081525083828151811015156109b357fe5b906020019060200201819052506001810190505b6001820191506002878115156109d957fe5b0496506108ae565b6109eb84846115ad565b15156109f657600080fd5b6002808d815481101515610a0657fe5b906000526020600020015460028f6040518082805190602001908083835b602083101515610a495780518252602082019150602081019050602083039250610a24565b6001836020036101000a0380198251168184511680821785525050505050509050019150506020604051808303816000865af1158015610a8d573d6000803e3d6000fd5b5050506040513d601f19601f82011682018060405250610ab09190810190611d99565b6040518083600019166000191681526020018260001916600019168152602001925050506020604051808303816000865af1158015610af3573d6000803e3d6000fd5b5050506040513d601f19601f82011682018060405250610b169190810190611d99565b60028d815481101515610b2557fe5b90600052602060002001816000191690555060048c815481101515610b4657fe5b90600052602060002001889080600181540180825580915050906001820390600052602060002001600090919290919091505550600160038d815481101515610b8b57fe5b90600052602060002001540160038d815481101515610ba657fe5b906000526020600020018190555050505050505050505050505050565b6000610bcd611a0b565b610bd5611a66565b610bdd611a0b565b60408051908101604052808b81526020018a8152509250604080519081016040528060408051908101604052808b81526020018a81525081526020016040805190810160405280898152602001888152508152509150610c3c8b611434565b9050610c59610c4a846114c0565b610c5261155b565b8385611840565b9350505050979650505050505050565b600281815481101515610c7857fe5b906000526020600020016000915090505481565b6000600382815481101515610c9d57fe5b90600052602060002001549050919050565b600482815481101515610cbe57fe5b9060005260206000200181815481101515610cd557fe5b90600052602060002001600091509150505481565b600081815481101515610cf957fe5b90600052602060002090600602016000915090508060000160009054906101000a900473ffffffffffffffffffffffffffffffffffffffff1690806001018054600181600116156101000203166002900480601f016020809104026020016040519081016040528092919081815260200182805460018160011615610100020316600290048015610dcb5780601f10610da057610100808354040283529160200191610dcb565b820191906000526020600020905b815481529060010190602001808311610dae57829003601f168201915b5050505050908060020154908060030154908060040154908060050154905086565b60008080549050905090565b6000600282815481101515610e0a57fe5b90600052602060002001549050919050565b6000600160008373ffffffffffffffffffffffffffffffffffffffff1673ffffffffffffffffffffffffffffffffffffffff168152602001908152602001600020549050919050565b3373ffffffffffffffffffffffffffffffffffffffff166000600160003373ffffffffffffffffffffffffffffffffffffffff1673ffffffffffffffffffffffffffffffffffffffff16815260200190815260200160002054815481101515610eca57fe5b906000526020600020906006020160000160009054906101000a900473ffffffffffffffffffffffffffffffffffffffff1673ffffffffffffffffffffffffffffffffffffffff16141515610f1e57600080fd5b600080815481101515610f2d57fe5b906000526020600020906006020160000160009054906101000a900473ffffffffffffffffffffffffffffffffffffffff1673ffffffffffffffffffffffffffffffffffffffff168673ffffffffffffffffffffffffffffffffffffffff1614151515610f9957600080fd5b6000600160008873ffffffffffffffffffffffffffffffffffffffff1673ffffffffffffffffffffffffffffffffffffffff16815260200190815260200160002054141515610fe757600080fd5b600060c0604051908101604052808873ffffffffffffffffffffffffffffffffffffffff168152602001878152602001868152602001858152602001848152602001838152509080600181540180825580915050906001820390600052602060002090600602016000909192909190915060008201518160000160006101000a81548173ffffffffffffffffffffffffffffffffffffffff021916908373ffffffffffffffffffffffffffffffffffffffff16021790555060208201518160010190805190602001906110bb929190611a8d565b5060408201518160020155606082015181600301556080820151816004015560a08201518160050155505050600160008054905003600160008873ffffffffffffffffffffffffffffffffffffffff1673ffffffffffffffffffffffffffffffffffffffff16815260200190815260200160002081905550505050505050565b6060600060038381548110151561114e57fe5b9060005260206000200181905550600060010260028381548110151561117057fe5b9060005260206000200181600019169055508060048381548110151561119257fe5b9060005260206000200190805190602001906111af929190611b0d565b505050565b6000600380549050905090565b6000806000806000600160008773ffffffffffffffffffffffffffffffffffffffff1673ffffffffffffffffffffffffffffffffffffffff16815260200190815260200160002054905060008181548110151561121a57fe5b90600052602060002090600602016002015460008281548110151561123b57fe5b90600052602060002090600602016003015460008381548110151561125c57fe5b90600052602060002090600602016004015460008481548110151561127d57fe5b9060005260206000209060060201600501549450945094509450509193509193565b60606003600090806001815401808255809150509060018203906000526020600020016000909192909190915055506002600090806001815401808255809150509060018203906000526020600020016000909192600102909190915090600019169055506004819080600181540180825580915050906001820390600052602060002001600090919290919091509080519060200190611341929190611b0d565b505050565b600060048381548110151561135757fe5b906000526020600020018281548110151561136e57fe5b9060005260206000200154905092915050565b6000808281548110151561139157fe5b906000526020600020906006020160000160009054906101000a900473ffffffffffffffffffffffffffffffffffffffff169050919050565b6003818154811015156113d957fe5b906000526020600020016000915090505481565b60008060006041845114151561140257600080fd5b6020840151915060408401519050606084015160001a9250601b8360ff16101561142d57601b830192505b9193909250565b61143c611a0b565b6000826040518082805190602001908083835b602083101515611474578051825260208201915060208101905060208303925061144f565b6001836020036101000a03801982511681845116808217855250505050505090500191505060405180910390206001900490506114b86114b261194b565b8261196f565b915050919050565b6114c8611a0b565b60007f30644e72e131a029b85045b68181585d97816a916871ca8d3c208c16d87cfd47905060008360000151148015611505575060008360200151145b156115285760408051908101604052806000815260200160008152509150611555565b60408051908101604052808460000151815260200182856020015181151561154c57fe5b06830381525091505b50919050565b611563611a66565b604080519081016040528060408051908101604052806005548152602001600654815250815260200160408051908101604052806007548152602001600854815250815250905090565b6000806000606060006115be611b5a565b6000875189511415156115d057600080fd5b88519550600686029450846040519080825280602002602001820160405280156116095781602001602082028038833980820191505090505b509350600092505b858310156117e657888381518110151561162757fe5b9060200190602002015160000151846000600686020181518110151561164957fe5b9060200190602002018181525050888381518110151561166557fe5b9060200190602002015160200151846001600686020181518110151561168757fe5b906020019060200201818152505087838151811015156116a357fe5b906020019060200201516000015160006002811015156116bf57fe5b602002015184600260068602018151811015156116d857fe5b906020019060200201818152505087838151811015156116f457fe5b9060200190602002015160000151600160028110151561171057fe5b6020020151846003600686020181518110151561172957fe5b9060200190602002018181525050878381518110151561174557fe5b9060200190602002015160200151600060028110151561176157fe5b6020020151846004600686020181518110151561177a57fe5b9060200190602002018181525050878381518110151561179657fe5b906020019060200201516020015160016002811015156117b257fe5b602002015184600560068602018151811015156117cb57fe5b90602001906020020181815250508280600101935050611611565b6020826020870260208701600060086107d05a03f19050806000811461180b5761180d565bfe5b5080151561181a57600080fd5b600082600060018110151561182b57fe5b60200201511415965050505050505092915050565b6000606080600260405190808252806020026020018201604052801561188057816020015b61186d611a25565b8152602001906001900390816118655790505b50915060026040519080825280602002602001820160405280156118be57816020015b6118ab611a3f565b8152602001906001900390816118a35790505b509050868260008151811015156118d157fe5b90602001906020020181905250848260018151811015156118ee57fe5b906020019060200201819052508581600081518110151561190b57fe5b906020019060200201819052508381600181518110151561192857fe5b9060200190602002018190525061193f82826115ad565b92505050949350505050565b611953611a0b565b6040805190810160405280600181526020016002815250905090565b611977611a0b565b61197f611b7d565b6000846000015182600060038110151561199557fe5b60200201818152505084602001518260016003811015156119b257fe5b602002018181525050838260026003811015156119cb57fe5b602002018181525050606083608084600060076107d05a03f1905080600081146119f4576119f6565bfe5b50801515611a0357600080fd5b505092915050565b604080519081016040528060008152602001600081525090565b604080519081016040528060008152602001600081525090565b608060405190810160405280611a53611ba0565b8152602001611a60611ba0565b81525090565b608060405190810160405280611a7a611ba0565b8152602001611a87611ba0565b81525090565b828054600181600116156101000203166002900490600052602060002090601f016020900481019282601f10611ace57805160ff1916838001178555611afc565b82800160010185558215611afc579182015b82811115611afb578251825591602001919060010190611ae0565b5b509050611b099190611bc2565b5090565b828054828255906000526020600020908101928215611b49579160200282015b82811115611b48578251825591602001919060010190611b2d565b5b509050611b569190611bc2565b5090565b602060405190810160405280600190602082028038833980820191505090505090565b606060405190810160405280600390602082028038833980820191505090505090565b6040805190810160405280600290602082028038833980820191505090505090565b611be491905b80821115611be0576000816000905550600101611bc8565b5090565b90565b6000611bf382356122a6565b905092915050565b6000611c0782516122c6565b905092915050565b600082601f8301121515611c2257600080fd5b8135611c35611c30826121f6565b6121c9565b91508082526020830160208301858383011115611c5157600080fd5b611c5c8382846122da565b50505092915050565b600082601f8301121515611c7857600080fd5b8135611c8b611c8682612222565b6121c9565b91508082526020830160208301858383011115611ca757600080fd5b611cb28382846122da565b50505092915050565b6000611cc782356122d0565b905092915050565b600060208284031215611ce157600080fd5b6000611cef84828501611be7565b91505092915050565b60008060008060008060c08789031215611d1157600080fd5b6000611d1f89828a01611be7565b965050602087013567ffffffffffffffff811115611d3c57600080fd5b611d4889828a01611c65565b9550506040611d5989828a01611cbb565b9450506060611d6a89828a01611cbb565b9350506080611d7b89828a01611cbb565b92505060a0611d8c89828a01611cbb565b9150509295509295509295565b600060208284031215611dab57600080fd5b6000611db984828501611bfb565b91505092915050565b60008060008060008060c08789031215611ddb57600080fd5b600087013567ffffffffffffffff811115611df557600080fd5b611e0189828a01611c0f565b9650506020611e1289828a01611cbb565b9550506040611e2389828a01611cbb565b9450506060611e3489828a01611cbb565b9350506080611e4589828a01611cbb565b92505060a0611e5689828a01611cbb565b9150509295509295509295565b600080600080600080600060e0888a031215611e7e57600080fd5b600088013567ffffffffffffffff811115611e9857600080fd5b611ea48a828b01611c0f565b9750506020611eb58a828b01611cbb565b9650506040611ec68a828b01611cbb565b9550506060611ed78a828b01611cbb565b9450506080611ee88a828b01611cbb565b93505060a0611ef98a828b01611cbb565b92505060c0611f0a8a828b01611cbb565b91505092959891949750929550565b60008060408385031215611f2c57600080fd5b600083013567ffffffffffffffff811115611f4657600080fd5b611f5285828601611c65565b925050602083013567ffffffffffffffff811115611f6f57600080fd5b611f7b85828601611c0f565b9150509250929050565b600060208284031215611f9757600080fd5b6000611fa584828501611cbb565b91505092915050565b60008060408385031215611fc157600080fd5b6000611fcf85828601611cbb565b9250506020611fe085828601611cbb565b9150509250929050565b611ff381612259565b82525050565b61200281612279565b82525050565b61201181612285565b82525050565b60006120228261224e565b8084526120368160208601602086016122e9565b61203f8161231c565b602085010191505092915050565b6120568161228f565b82525050565b61206581612299565b82525050565b60006020820190506120806000830184611fea565b92915050565b600060c08201905061209b6000830189611fea565b81810360208301526120ad8188612017565b90506120bc604083018761204d565b6120c9606083018661204d565b6120d6608083018561204d565b6120e360a083018461204d565b979650505050505050565b60006020820190506121036000830184611ff9565b92915050565b600060208201905061211e6000830184612008565b92915050565b60006080820190506121396000830187612008565b612146602083018661205c565b6121536040830185612008565b6121606060830184612008565b95945050505050565b600060208201905061217e600083018461204d565b92915050565b6000608082019050612199600083018761204d565b6121a6602083018661204d565b6121b3604083018561204d565b6121c0606083018461204d565b95945050505050565b6000604051905081810181811067ffffffffffffffff821117156121ec57600080fd5b8060405250919050565b600067ffffffffffffffff82111561220d57600080fd5b601f19601f8301169050602081019050919050565b600067ffffffffffffffff82111561223957600080fd5b601f19601f8301169050602081019050919050565b600081519050919050565b600073ffffffffffffffffffffffffffffffffffffffff82169050919050565b60008115159050919050565b6000819050919050565b6000819050919050565b600060ff82169050919050565b600073ffffffffffffffffffffffffffffffffffffffff82169050919050565b6000819050919050565b6000819050919050565b82818337600083830152505050565b60005b838110156123075780820151818401526020810190506122ec565b83811115612316576000848401525b50505050565b6000601f19601f83011690509190505600a265627a7a72305820745407c844a19965ce97e7ee46aaed39470f058bc3d71529a5e7820b0bdd0e396c6578706572696d656e74616cf50037",
  "source": "pragma solidity ^0.4.24;\npragma experimental ABIEncoderV2;\n\ncontract ScaleChain {\n    ScaleNode[] public scale_nodes;\n    mapping(address => uint) scale_id;\n    bytes32[] public curr_hash;\n    uint[] public block_id;\n    uint[][] public signers; \n\n    struct G1Point {\n        uint X;\n        uint Y;\n    }\n    struct G2Point {\n        uint[2] X;\n        uint[2] Y;\n    }\n    uint g2x1 = 11559732032986387107991004021392285783925812861821192530917403151452391805634;\n    uint g2x2 = 10857046999023057135944570762232829481370756359578518086990519993285655852781;\n    uint g2y1 = 4082367875863433681332203403145435568316851327593401208105741076214120093531;\n    uint g2y2 = 8495653923123431417604973247489272438418190587263600148770280649306958101930;\n\n\n    function P1() internal returns (G1Point) {\n        return G1Point(1, 2);\n    }\n\n    function P2() internal returns (G2Point) {\n        return G2Point([g2x1, g2x2], [g2y1, g2y2]);\n    }\n    struct ScaleNode {\n        address eth_addr;\n        string ip_addr;\n        uint pkx1;\n        uint pkx2;\n        uint pky1;\n        uint pky2;\n\n    }\n    // Initialize ScaleNodes so that a sender of a new block\n    // has to be one of the scaleNode\n    constructor(address admin_addr) public {\n        scale_nodes.push(ScaleNode({\n            eth_addr: admin_addr,\n            ip_addr: \"localhost\",\n            pkx1: g2x1,\n            pkx2: g2x2,\n            pky1: g2y1,\n            pky2: g2y2\n        }));\n        scale_id[admin_addr] = 0;\n        addSideChain();\n    }\n\n    // Current ScaleNode authorize new ScaleNode\n    // Note: check msg.sender and not duplicate\n    function addScaleNode(address new_scale_node, string ip_addr, uint pkx1, uint pkx2, uint pky1, uint pky2) public {\n        require (scale_nodes[scale_id[msg.sender]].eth_addr == msg.sender);\n        require (new_scale_node != scale_nodes[0].eth_addr);\n        require (scale_id[new_scale_node] == 0);\n        scale_nodes.push(ScaleNode({\n            eth_addr: new_scale_node,\n            ip_addr: ip_addr,\n            pkx1: pkx1,\n            pkx2: pkx2,\n            pky1: pky1,\n            pky2: pky2\n        }));\n        scale_id[new_scale_node] = scale_nodes.length-1;\n    }\n\n    function addSideChain() public {\n        block_id.push(0);\n        curr_hash.push(0);\n        uint[] memory new_signers; \n        signers.push(new_signers);\n    }\n\n    // Get Ether node addresses\n    function getScaleNode(uint id) public view\n        returns (address scale_node_address) {\n            scale_node_address = scale_nodes[id].eth_addr;\n    }\n\n    function getScaleID(address addr) public view\n        returns (uint id) {\n            id = scale_id[addr];\n    }\n\n    function getScalePubKey(address addr) public view\n        returns (uint, uint, uint, uint) {\n            uint id = scale_id[addr];\n            return (scale_nodes[id].pkx1, scale_nodes[id].pkx2, scale_nodes[id].pky1, scale_nodes[id].pky2);\n    }\n\n    function getCurrentHash(uint sid) public view\n        returns (bytes32 currentHash) {\n            currentHash = curr_hash[sid];\n    }\n\n    function getBlockID(uint sid) public view\n        returns (uint bid) {\n            bid = block_id[sid];\n    }\n\n    function getSigners(uint sid, uint bid) public view returns(uint bitset) {\n        bitset = signers[sid][bid];\n    }\n\n    function sideChainsCount() public view\n        returns (uint number_of_sideChains) {\n            number_of_sideChains = block_id.length;\n    }\n\n    // Get # of Ether nodes\n    function scaleNodesCount() public view\n        returns (uint number_of_scaleNodes) {\n            number_of_scaleNodes = scale_nodes.length;\n    }\n\n\n    function resetSideChain(uint sid) public {\n        block_id[sid] = 0;\n        curr_hash[sid] = 0;\n        uint[] memory new_signers; \n        signers[sid] = new_signers;\n    }\n    \n    \n\n    function submitVote(bytes block_header, uint sid, uint bid, uint sigx, uint sigy, uint bitset) public {\n        // 1.check sent by one of scaleNodes\n        require(scale_nodes[scale_id[msg.sender]].eth_addr == msg.sender);\n\n        // 2. check block id\n        require(bid == block_id[sid] + 1);\n\n\n        // 3. check signature aggregation\n        require (bitset % 2 == 0);\n        uint bs = bitset / 2;\n        uint cnt = 0;\n        while (bs > 0) {\n            if (bs % 2 == 1) {\n                cnt += 1;\n            }\n            bs /= 2;\n        }\n        G1Point memory h0 = hashToG1(block_header);\n        \n        G1Point[] memory a = new G1Point[](cnt+1);\n        G2Point[] memory b = new G2Point[](cnt+1);\n        a[0] = negate(G1Point(sigx, sigy));\n        b[0] = P2();\n        bs = bitset / 2;\n        uint j = 1;\n        uint k = 1;\n        while (bs > 0) {\n            if (bs % 2 == 1) {\n                a[k] = h0;\n                b[k] = G2Point([scale_nodes[j].pkx1, scale_nodes[j].pkx2], [scale_nodes[j].pky1, scale_nodes[j].pky2]);\n                k += 1;\n            }\n            j += 1;\n            bs /= 2;\n        }\n        require(pairing(a, b));\n\n\n        // If pass, update hash\n        curr_hash[sid] = sha256(curr_hash[sid], sha256(block_header));\n        signers[sid].push(bitset);\n        block_id[sid] = block_id[sid] + 1;\n    }\n\n    \n    function verifyBLS(bytes message, uint sigx, uint sigy, uint pkx1, uint pkx2, uint pky1, uint pky2) returns (bool) {\n        G1Point memory signature = G1Point(sigx, sigy);\n        G2Point memory pub_key = G2Point([pkx1, pkx2], [pky1, pky2]);\n        G1Point memory h = hashToG1(message);\n        return pairing2(negate(signature), P2(), h, pub_key);\n    }\n\n    function hashToG1(bytes message) internal returns (G1Point) {\n        uint256 h = uint256(keccak256(message));\n        return mul(P1(), h);\n    }\n\n    function modPow(uint256 base, uint256 exponent, uint256 modulus) internal returns (uint256) {\n        uint256[6] memory input = [32, 32, 32, base, exponent, modulus];\n        uint256[1] memory result;\n        assembly {\n            if iszero(call(not(0), 0x05, 0, input, 0xc0, result, 0x20)) {\n                revert(0, 0)\n            }\n        }\n        return result[0];\n    }\n\n    /// @return the negation of p, i.e. p.add(p.negate()) should be zero.\n    function negate(G1Point p) internal returns (G1Point) {\n        // The prime q in the base field F_q for G1\n        uint q = 21888242871839275222246405745257275088696311157297823662689037894645226208583;\n        if (p.X == 0 && p.Y == 0)\n            return G1Point(0, 0);\n        return G1Point(p.X, q - (p.Y % q));\n    }\n\n    /// @return the sum of two points of G1\n    function add(G1Point p1, G1Point p2) internal returns (G1Point r) {\n        uint[4] memory input;\n        input[0] = p1.X;\n        input[1] = p1.Y;\n        input[2] = p2.X;\n        input[3] = p2.Y;\n        bool success;\n        assembly {\n            success := call(sub(gas, 2000), 6, 0, input, 0xc0, r, 0x60)\n        // Use \"invalid\" to make gas estimation work\n            switch success case 0 {invalid}\n        }\n        require(success);\n    }\n    /// @return the product of a point on G1 and a scalar, i.e.\n    /// p == p.mul(1) and p.add(p) == p.mul(2) for all points p.\n    function mul(G1Point p, uint s) internal returns (G1Point r) {\n        uint[3] memory input;\n        input[0] = p.X;\n        input[1] = p.Y;\n        input[2] = s;\n        bool success;\n        assembly {\n            success := call(sub(gas, 2000), 7, 0, input, 0x80, r, 0x60)\n        // Use \"invalid\" to make gas estimation work\n            switch success case 0 {invalid}\n        }\n        require(success);\n    }\n\n\n    function splitSignature(bytes memory sig) internal pure returns (uint8 v, bytes32 r, bytes32 s) {\n        require(sig.length == 65);\n        assembly {\n            r := mload(add(sig, 32))\n            s := mload(add(sig, 64))\n            v := byte(0, mload(add(sig, 96)))\n        }\n        if (v < 27) v = v + 27;\n    }\n\n    function recoverSigner(string block, bytes sig) returns (address signer_address) {\n        bytes memory prefix = \"\\x19Ethereum Signed Message:\\n32\";\n        bytes32 prefixedHash = sha3(prefix, sha3(block));\n        (uint8 v, bytes32 r, bytes32 s) = splitSignature(sig);\n        signer_address = ecrecover(prefixedHash, v, r, s);\n    }\n    \n/*    function proposeBlock(string block_header, bytes signature, uint new_block_id) public {\n        \n        // 1.check signed by one of scaleNode\n        address signer_address = recoverSigner(block_header, signature);\n        require (scale_nodes[scale_id[signer_address]].eth_addr == signer_address);\n\n        //Check whether the new_block_id = block_id + 1. If not, reject the block. \n        require (block_id + 1 == new_block_id);\n\n        // 2. update hash tentative codes\n        bytes32 new_hash = sha256(curr_hash, sha256(block_header));\n        curr_hash = new_hash;\n        block_id = block_id + 1;\n    }\n*/\n    function pairing(G1Point[] p1, G2Point[] p2) internal returns (bool) {\n        require(p1.length == p2.length);\n        uint elements = p1.length;\n        uint inputSize = elements * 6;\n        uint[] memory input = new uint[](inputSize);\n\n        for (uint i = 0; i < elements; i++)\n        {\n            input[i * 6 + 0] = p1[i].X;\n            input[i * 6 + 1] = p1[i].Y;\n            input[i * 6 + 2] = p2[i].X[0];\n            input[i * 6 + 3] = p2[i].X[1];\n            input[i * 6 + 4] = p2[i].Y[0];\n            input[i * 6 + 5] = p2[i].Y[1];\n        }\n\n        uint[1] memory out;\n        bool success;\n\n        assembly {\n            success := call(sub(gas, 2000), 8, 0, add(input, 0x20), mul(inputSize, 0x20), out, 0x20)\n        // Use \"invalid\" to make gas estimation work\n            switch success case 0 {invalid}\n        }\n        require(success);\n        return out[0] != 0;\n    }\n\n    function pairing2(G1Point a1, G2Point a2, G1Point b1, G2Point b2) internal returns (bool) {\n        G1Point[] memory p1 = new G1Point[](2);\n        G2Point[] memory p2 = new G2Point[](2);\n        p1[0] = a1;\n        p1[1] = b1;\n        p2[0] = a2;\n        p2[1] = b2;\n        return pairing(p1, p2);\n    }\n\n\n\n\n    \n\n}",
  "sourcePath": "/Users/spy/ScaleChain/ScaleChain_v2/contracts/ScaleChain.sol",
  "compiler": {
    "name": "solc",
    "version": "0.4.24+commit.e67f0147.Emscripten.clang"
  },
  "schemaVersion": "3.2.0",
  "updatedAt": "2020-06-22T16:31:03.862Z",
  "networkType": "ethereum",
  "devdoc": {
    "methods": {}
  },
  "userdoc": {
    "methods": {}
  }
}