{
  "contractName": "ScaleChain",
  "abi": [
    {
      "constant": true,
      "inputs": [
        {
          "name": "",
          "type": "uint256"
        },
        {
          "name": "",
          "type": "uint256"
        }
      ],
      "name": "token_rings",
      "outputs": [
        {
          "name": "eth_addr",
          "type": "address"
        },
        {
          "name": "ip_addr",
          "type": "string"
        }
      ],
      "payable": false,
      "stateMutability": "view",
      "type": "function"
    },
    {
      "constant": true,
      "inputs": [
        {
          "name": "",
          "type": "uint256"
        }
      ],
      "name": "curr_hash",
      "outputs": [
        {
          "name": "",
          "type": "bytes32"
        }
      ],
      "payable": false,
      "stateMutability": "view",
      "type": "function"
    },
    {
      "constant": true,
      "inputs": [
        {
          "name": "",
          "type": "uint256"
        },
        {
          "name": "",
          "type": "uint256"
        }
      ],
      "name": "signers",
      "outputs": [
        {
          "name": "",
          "type": "uint256"
        }
      ],
      "payable": false,
      "stateMutability": "view",
      "type": "function"
    },
    {
      "constant": true,
      "inputs": [
        {
          "name": "",
          "type": "uint256"
        }
      ],
      "name": "scale_nodes",
      "outputs": [
        {
          "name": "eth_addr",
          "type": "address"
        },
        {
          "name": "ip_addr",
          "type": "string"
        },
        {
          "name": "pkx1",
          "type": "uint256"
        },
        {
          "name": "pkx2",
          "type": "uint256"
        },
        {
          "name": "pky1",
          "type": "uint256"
        },
        {
          "name": "pky2",
          "type": "uint256"
        }
      ],
      "payable": false,
      "stateMutability": "view",
      "type": "function"
    },
    {
      "constant": true,
      "inputs": [
        {
          "name": "",
          "type": "uint256"
        }
      ],
      "name": "block_id",
      "outputs": [
        {
          "name": "",
          "type": "uint256"
        }
      ],
      "payable": false,
      "stateMutability": "view",
      "type": "function"
    },
    {
      "inputs": [
        {
          "name": "admin_addr",
          "type": "address"
        }
      ],
      "payable": false,
      "stateMutability": "nonpayable",
      "type": "constructor"
    },
    {
      "constant": false,
      "inputs": [
        {
          "name": "new_scale_node",
          "type": "address"
        },
        {
          "name": "ip_addr",
          "type": "string"
        },
        {
          "name": "pkx1",
          "type": "uint256"
        },
        {
          "name": "pkx2",
          "type": "uint256"
        },
        {
          "name": "pky1",
          "type": "uint256"
        },
        {
          "name": "pky2",
          "type": "uint256"
        }
      ],
      "name": "addScaleNode",
      "outputs": [],
      "payable": false,
      "stateMutability": "nonpayable",
      "type": "function"
    },
    {
      "constant": false,
      "inputs": [],
      "name": "addSideChain",
      "outputs": [],
      "payable": false,
      "stateMutability": "nonpayable",
      "type": "function"
    },
    {
      "constant": false,
      "inputs": [
        {
          "name": "sid",
          "type": "uint256"
        },
        {
          "name": "new_side_node",
          "type": "address"
        },
        {
          "name": "ip_addr",
          "type": "string"
        }
      ],
      "name": "addSideNode",
      "outputs": [],
      "payable": false,
      "stateMutability": "nonpayable",
      "type": "function"
    },
    {
      "constant": false,
      "inputs": [
        {
          "name": "sid",
          "type": "uint256"
        },
        {
          "name": "tid",
          "type": "uint256"
        }
      ],
      "name": "deleteSideNode",
      "outputs": [],
      "payable": false,
      "stateMutability": "nonpayable",
      "type": "function"
    },
    {
      "constant": true,
      "inputs": [
        {
          "name": "sid",
          "type": "uint256"
        },
        {
          "name": "node",
          "type": "address"
        }
      ],
      "name": "getSideNodeID",
      "outputs": [
        {
          "name": "tid",
          "type": "uint256"
        }
      ],
      "payable": false,
      "stateMutability": "view",
      "type": "function"
    },
    {
      "constant": true,
      "inputs": [
        {
          "name": "id",
          "type": "uint256"
        }
      ],
      "name": "getScaleNode",
      "outputs": [
        {
          "name": "scale_node_address",
          "type": "address"
        }
      ],
      "payable": false,
      "stateMutability": "view",
      "type": "function"
    },
    {
      "constant": true,
      "inputs": [
        {
          "name": "addr",
          "type": "address"
        }
      ],
      "name": "getScaleID",
      "outputs": [
        {
          "name": "id",
          "type": "uint256"
        }
      ],
      "payable": false,
      "stateMutability": "view",
      "type": "function"
    },
    {
      "constant": true,
      "inputs": [
        {
          "name": "addr",
          "type": "address"
        }
      ],
      "name": "getScalePubKey",
      "outputs": [
        {
          "name": "",
          "type": "uint256"
        },
        {
          "name": "",
          "type": "uint256"
        },
        {
          "name": "",
          "type": "uint256"
        },
        {
          "name": "",
          "type": "uint256"
        }
      ],
      "payable": false,
      "stateMutability": "view",
      "type": "function"
    },
    {
      "constant": true,
      "inputs": [
        {
          "name": "sid",
          "type": "uint256"
        }
      ],
      "name": "getCurrentHash",
      "outputs": [
        {
          "name": "currentHash",
          "type": "bytes32"
        }
      ],
      "payable": false,
      "stateMutability": "view",
      "type": "function"
    },
    {
      "constant": true,
      "inputs": [
        {
          "name": "sid",
          "type": "uint256"
        }
      ],
      "name": "getBlockID",
      "outputs": [
        {
          "name": "bid",
          "type": "uint256"
        }
      ],
      "payable": false,
      "stateMutability": "view",
      "type": "function"
    },
    {
      "constant": true,
      "inputs": [
        {
          "name": "sid",
          "type": "uint256"
        },
        {
          "name": "bid",
          "type": "uint256"
        }
      ],
      "name": "getSigners",
      "outputs": [
        {
          "name": "bitset",
          "type": "uint256"
        }
      ],
      "payable": false,
      "stateMutability": "view",
      "type": "function"
    },
    {
      "constant": true,
      "inputs": [],
      "name": "sideChainsCount",
      "outputs": [
        {
          "name": "number_of_sideChains",
          "type": "uint256"
        }
      ],
      "payable": false,
      "stateMutability": "view",
      "type": "function"
    },
    {
      "constant": true,
      "inputs": [],
      "name": "scaleNodesCount",
      "outputs": [
        {
          "name": "number_of_scaleNodes",
          "type": "uint256"
        }
      ],
      "payable": false,
      "stateMutability": "view",
      "type": "function"
    },
    {
      "constant": false,
      "inputs": [
        {
          "name": "sid",
          "type": "uint256"
        }
      ],
      "name": "resetSideChain",
      "outputs": [],
      "payable": false,
      "stateMutability": "nonpayable",
      "type": "function"
    },
    {
      "constant": false,
      "inputs": [
        {
          "name": "block_header",
          "type": "bytes"
        },
        {
          "name": "sid",
          "type": "uint256"
        },
        {
          "name": "bid",
          "type": "uint256"
        },
        {
          "name": "sigx",
          "type": "uint256"
        },
        {
          "name": "sigy",
          "type": "uint256"
        },
        {
          "name": "bitset",
          "type": "uint256"
        }
      ],
      "name": "submitVote",
      "outputs": [],
      "payable": false,
      "stateMutability": "nonpayable",
      "type": "function"
    },
    {
      "constant": false,
      "inputs": [
        {
          "name": "message",
          "type": "bytes"
        },
        {
          "name": "sigx",
          "type": "uint256"
        },
        {
          "name": "sigy",
          "type": "uint256"
        },
        {
          "name": "pkx1",
          "type": "uint256"
        },
        {
          "name": "pkx2",
          "type": "uint256"
        },
        {
          "name": "pky1",
          "type": "uint256"
        },
        {
          "name": "pky2",
          "type": "uint256"
        }
      ],
      "name": "verifyBLS",
      "outputs": [
        {
          "name": "",
          "type": "bool"
        }
      ],
      "payable": false,
      "stateMutability": "nonpayable",
      "type": "function"
    },
    {
      "constant": false,
      "inputs": [
        {
          "name": "block",
          "type": "string"
        },
        {
          "name": "sig",
          "type": "bytes"
        }
      ],
      "name": "recoverSigner",
      "outputs": [
        {
          "name": "signer_address",
          "type": "address"
        }
      ],
      "payable": false,
      "stateMutability": "nonpayable",
      "type": "function"
    }
  ],
  "bytecode": "0x60806040527f198e9393920d483a7260bfb731fb5d25f1aa493335a9e71297e485b7aef312c2600f557f1800deef121f1e76426a00665e5c4479674322d4f75edadd46debd5cd992f6ed6010557f090689d0585ff075ec9e99ad690c3395bc4b313370b38ef355acdadcd122975b6011557f12c85ea5db8c6deb4aab71808dcb408fe3d1e7690c43d37b4ce6cc0166fa7daa601255348015620000a157600080fd5b5060405160208062002f128339810180604052620000c3919081019062000427565b600060c0604051908101604052808373ffffffffffffffffffffffffffffffffffffffff1681526020016040805190810160405280600981526020017f6c6f63616c686f737400000000000000000000000000000000000000000000008152508152602001600f548152602001601054815260200160115481526020016012548152509080600181540180825580915050906001820390600052602060002090600602016000909192909190915060008201518160000160006101000a81548173ffffffffffffffffffffffffffffffffffffffff021916908373ffffffffffffffffffffffffffffffffffffffff1602179055506020820151816001019080519060200190620001d692919062000310565b5060408201518160020155606082015181600301556080820151816004015560a082015181600501555050506000600160008373ffffffffffffffffffffffffffffffffffffffff1673ffffffffffffffffffffffffffffffffffffffff168152602001908152602001600020819055506200026062000267640100000000026401000000009004565b5062000473565b606060036000908060018154018082558091505090600182039060005260206000200160009091929091909150555060026000908060018154018082558091505090600182039060005260206000200160009091926001029091909150906000191690555060048190806001815401808255809150509060018203906000526020600020016000909192909190915090805190602001906200030b92919062000397565b505050565b828054600181600116156101000203166002900490600052602060002090601f016020900481019282601f106200035357805160ff191683800117855562000384565b8280016001018555821562000384579182015b828111156200038357825182559160200191906001019062000366565b5b509050620003939190620003e9565b5090565b828054828255906000526020600020908101928215620003d6579160200282015b82811115620003d5578251825591602001919060010190620003b8565b5b509050620003e59190620003e9565b5090565b6200040e91905b808211156200040a576000816000905550600101620003f0565b5090565b90565b60006200041f825162000453565b905092915050565b6000602082840312156200043a57600080fd5b60006200044a8482850162000411565b91505092915050565b600073ffffffffffffffffffffffffffffffffffffffff82169050919050565b612a8f80620004836000396000f300608060405260043610610127576000357c0100000000000000000000000000000000000000000000000000000000900463ffffffff168062fd49841461012c57806317d7acda146101695780631bf1279c14610192578063328c0f14146101d05780633bfda7b6146101f95780633f5d07af146102365780633f92958f14610273578063488c3f25146102b0578063495175f7146102ed578063525e14601461032f578063797f2fa21461035a578063839f01301461039757806389194853146103d457806396477f7f14610411578063baba3dab1461043a578063bd877ca414610463578063c0978a7d1461048e578063d382fb34146104ce578063d3884acf146104e5578063daf6faa61461050e578063e1bc81a21461054b578063fc922e0714610588575b600080fd5b34801561013857600080fd5b50610153600480360361014e919081019061256e565b6105c5565b6040516101609190612763565b60405180910390f35b34801561017557600080fd5b50610190600480360361018b9190810190612417565b61074b565b005b34801561019e57600080fd5b506101b960048036036101b491908101906126a6565b610cbc565b6040516101c792919061277e565b60405180910390f35b3480156101dc57600080fd5b506101f760048036036101f2919081019061263f565b610db6565b005b34801561020557600080fd5b50610220600480360361021b91908101906124b8565b610e88565b60405161022d9190612816565b60405180910390f35b34801561024257600080fd5b5061025d600480360361025891908101906125da565b610f2e565b60405161026a9190612831565b60405180910390f35b34801561027f57600080fd5b5061029a600480360361029591908101906125da565b610f51565b6040516102a79190612891565b60405180910390f35b3480156102bc57600080fd5b506102d760048036036102d291908101906126a6565b610f74565b6040516102e49190612891565b60405180910390f35b3480156102f957600080fd5b50610314600480360361030f91908101906125da565b610faf565b604051610326969594939291906127ae565b60405180910390f35b34801561033b57600080fd5b506103446110b2565b6040516103519190612891565b60405180910390f35b34801561036657600080fd5b50610381600480360361037c9190810190612603565b6110be565b60405161038e9190612891565b60405180910390f35b3480156103a357600080fd5b506103be60048036036103b991908101906125da565b6111b2565b6040516103cb9190612831565b60405180910390f35b3480156103e057600080fd5b506103fb60048036036103f69190810190612324565b6111d5565b6040516104089190612891565b60405180910390f35b34801561041d57600080fd5b506104386004803603610433919081019061234d565b61121e565b005b34801561044657600080fd5b50610461600480360361045c91908101906125da565b6114f4565b005b34801561046f57600080fd5b5061047861156d565b6040516104859190612891565b60405180910390f35b34801561049a57600080fd5b506104b560048036036104b09190810190612324565b61157a565b6040516104c594939291906128ac565b60405180910390f35b3480156104da57600080fd5b506104e3611658565b005b3480156104f157600080fd5b5061050c600480360361050791908101906126a6565b6116ff565b005b34801561051a57600080fd5b50610535600480360361053091908101906126a6565b611844565b6040516105429190612891565b60405180910390f35b34801561055757600080fd5b50610572600480360361056d91908101906125da565b61187f565b60405161057f9190612763565b60405180910390f35b34801561059457600080fd5b506105af60048036036105aa91908101906125da565b6118c8565b6040516105bc9190612891565b60405180910390f35b600060606000806000806040805190810160405280601c81526020017f19457468657265756d205369676e6564204d6573736167653a0a333200000000815250945084886040518082805190602001908083835b60208310151561063e5780518252602082019150602081019050602083039250610619565b6001836020036101000a03801982511681845116808217855250505050505090500191505060405180910390206040518083805190602001908083835b6020831015156106a0578051825260208201915060208101905060208303925061067b565b6001836020036101000a038019825116818451168082178552505050505050905001826000191660001916815260200192505050604051809103902093506106e7876118eb565b92509250925060018484848460405160008152602001604052604051610710949392919061284c565b60206040516020810390808403906000865af1158015610734573d6000803e3d6000fd5b505050602060405103519550505050505092915050565b600080610756611f09565b6060806000803373ffffffffffffffffffffffffffffffffffffffff166000600160003373ffffffffffffffffffffffffffffffffffffffff1673ffffffffffffffffffffffffffffffffffffffff168152602001908152602001600020548154811015156107c157fe5b906000526020600020906006020160000160009054906101000a900473ffffffffffffffffffffffffffffffffffffffff1673ffffffffffffffffffffffffffffffffffffffff1614151561081557600080fd5b600160038d81548110151561082657fe5b9060005260206000200154018b14151561083f57600080fd5b600060028981151561084d57fe5b0614151561085a57600080fd5b60028881151561086657fe5b049650600095505b60008711156108a757600160028881151561088557fe5b061415610893576001860195505b60028781151561089f57fe5b04965061086e565b6108b08d611932565b9450600186016040519080825280602002602001820160405280156108ef57816020015b6108dc611f23565b8152602001906001900390816108d45790505b5093506001860160405190808252806020026020018201604052801561092f57816020015b61091c611f3d565b8152602001906001900390816109145790505b50925061094f60408051908101604052808c81526020018b8152506119be565b84600081518110151561095e57fe5b90602001906020020181905250610973611a59565b83600081518110151561098257fe5b9060200190602002018190525060028881151561099b57fe5b04965060019150600190505b6000871115610ada5760016002888115156109be57fe5b061415610ac0578484828151811015156109d457fe5b9060200190602002018190525060408051908101604052806040805190810160405280600086815481101515610a0657fe5b9060005260206000209060060201600201548152602001600086815481101515610a2c57fe5b90600052602060002090600602016003015481525081526020016040805190810160405280600086815481101515610a6057fe5b9060005260206000209060060201600401548152602001600086815481101515610a8657fe5b9060005260206000209060060201600501548152508152508382815181101515610aac57fe5b906020019060200201819052506001810190505b600182019150600287811515610ad257fe5b0496506109a7565b610ae48484611aab565b1515610aef57600080fd5b6002808d815481101515610aff57fe5b906000526020600020015460028f6040518082805190602001908083835b602083101515610b425780518252602082019150602081019050602083039250610b1d565b6001836020036101000a0380198251168184511680821785525050505050509050019150506020604051808303816000865af1158015610b86573d6000803e3d6000fd5b5050506040513d601f19601f82011682018060405250610ba991908101906123ee565b6040518083600019166000191681526020018260001916600019168152602001925050506020604051808303816000865af1158015610bec573d6000803e3d6000fd5b5050506040513d601f19601f82011682018060405250610c0f91908101906123ee565b60028d815481101515610c1e57fe5b90600052602060002001816000191690555060048c815481101515610c3f57fe5b90600052602060002001889080600181540180825580915050906001820390600052602060002001600090919290919091505550600160038d815481101515610c8457fe5b90600052602060002001540160038d815481101515610c9f57fe5b906000526020600020018190555050505050505050505050505050565b600582600a81101515610ccb57fe5b0181815481101515610cd957fe5b9060005260206000209060020201600091509150508060000160009054906101000a900473ffffffffffffffffffffffffffffffffffffffff1690806001018054600181600116156101000203166002900480601f016020809104026020016040519081016040528092919081815260200182805460018160011615610100020316600290048015610dac5780601f10610d8157610100808354040283529160200191610dac565b820191906000526020600020905b815481529060010190602001808311610d8f57829003601f168201915b5050505050905082565b600583600a81101515610dc557fe5b0160408051908101604052808473ffffffffffffffffffffffffffffffffffffffff168152602001838152509080600181540180825580915050906001820390600052602060002090600202016000909192909190915060008201518160000160006101000a81548173ffffffffffffffffffffffffffffffffffffffff021916908373ffffffffffffffffffffffffffffffffffffffff1602179055506020820151816001019080519060200190610e7f929190611f64565b50505050505050565b6000610e92611f09565b610e9a611fe4565b610ea2611f09565b60408051908101604052808b81526020018a8152509250604080519081016040528060408051908101604052808b81526020018a81525081526020016040805190810160405280898152602001888152508152509150610f018b611932565b9050610f1e610f0f846119be565b610f17611a59565b8385611d3e565b9350505050979650505050505050565b600281815481101515610f3d57fe5b906000526020600020016000915090505481565b6000600382815481101515610f6257fe5b90600052602060002001549050919050565b600482815481101515610f8357fe5b9060005260206000200181815481101515610f9a57fe5b90600052602060002001600091509150505481565b600081815481101515610fbe57fe5b90600052602060002090600602016000915090508060000160009054906101000a900473ffffffffffffffffffffffffffffffffffffffff1690806001018054600181600116156101000203166002900480601f0160208091040260200160405190810160405280929190818152602001828054600181600116156101000203166002900480156110905780601f1061106557610100808354040283529160200191611090565b820191906000526020600020905b81548152906001019060200180831161107357829003601f168201915b5050505050908060020154908060030154908060040154908060050154905086565b60008080549050905090565b600080600584600a811015156110d057fe5b01805490509150600090505b600584600a811015156110eb57fe5b018054905081101561118a578273ffffffffffffffffffffffffffffffffffffffff16600585600a8110151561111d57fe5b018281548110151561112b57fe5b906000526020600020906002020160000160009054906101000a900473ffffffffffffffffffffffffffffffffffffffff1673ffffffffffffffffffffffffffffffffffffffff16141561117d578091505b80806001019150506110dc565b600584600a8110151561119957fe5b0180549050821015156111ab57600080fd5b5092915050565b60006002828154811015156111c357fe5b90600052602060002001549050919050565b6000600160008373ffffffffffffffffffffffffffffffffffffffff1673ffffffffffffffffffffffffffffffffffffffff168152602001908152602001600020549050919050565b3373ffffffffffffffffffffffffffffffffffffffff166000600160003373ffffffffffffffffffffffffffffffffffffffff1673ffffffffffffffffffffffffffffffffffffffff1681526020019081526020016000205481548110151561128357fe5b906000526020600020906006020160000160009054906101000a900473ffffffffffffffffffffffffffffffffffffffff1673ffffffffffffffffffffffffffffffffffffffff161415156112d757600080fd5b6000808154811015156112e657fe5b906000526020600020906006020160000160009054906101000a900473ffffffffffffffffffffffffffffffffffffffff1673ffffffffffffffffffffffffffffffffffffffff168673ffffffffffffffffffffffffffffffffffffffff161415151561135257600080fd5b6000600160008873ffffffffffffffffffffffffffffffffffffffff1673ffffffffffffffffffffffffffffffffffffffff168152602001908152602001600020541415156113a057600080fd5b600060c0604051908101604052808873ffffffffffffffffffffffffffffffffffffffff168152602001878152602001868152602001858152602001848152602001838152509080600181540180825580915050906001820390600052602060002090600602016000909192909190915060008201518160000160006101000a81548173ffffffffffffffffffffffffffffffffffffffff021916908373ffffffffffffffffffffffffffffffffffffffff1602179055506020820151816001019080519060200190611474929190611f64565b5060408201518160020155606082015181600301556080820151816004015560a08201518160050155505050600160008054905003600160008873ffffffffffffffffffffffffffffffffffffffff1673ffffffffffffffffffffffffffffffffffffffff16815260200190815260200160002081905550505050505050565b6060600060038381548110151561150757fe5b9060005260206000200181905550600060010260028381548110151561152957fe5b9060005260206000200181600019169055508060048381548110151561154b57fe5b90600052602060002001908051906020019061156892919061200b565b505050565b6000600380549050905090565b6000806000806000600160008773ffffffffffffffffffffffffffffffffffffffff1673ffffffffffffffffffffffffffffffffffffffff1681526020019081526020016000205490506000818154811015156115d357fe5b9060005260206000209060060201600201546000828154811015156115f457fe5b90600052602060002090600602016003015460008381548110151561161557fe5b90600052602060002090600602016004015460008481548110151561163657fe5b9060005260206000209060060201600501549450945094509450509193509193565b606060036000908060018154018082558091505090600182039060005260206000200160009091929091909150555060026000908060018154018082558091505090600182039060005260206000200160009091926001029091909150906000191690555060048190806001815401808255809150509060018203906000526020600020016000909192909190915090805190602001906116fa92919061200b565b505050565b60008190505b6001600584600a8110151561171657fe5b01805490500381101561181b57600583600a8110151561173257fe5b016001820181548110151561174357fe5b9060005260206000209060020201600584600a8110151561176057fe5b018281548110151561176e57fe5b90600052602060002090600202016000820160009054906101000a900473ffffffffffffffffffffffffffffffffffffffff168160000160006101000a81548173ffffffffffffffffffffffffffffffffffffffff021916908373ffffffffffffffffffffffffffffffffffffffff1602179055506001820181600101908054600181600116156101000203166002900461180a929190612058565b509050508080600101915050611705565b600583600a8110151561182a57fe5b0180548091906001900361183e91906120df565b50505050565b600060048381548110151561185557fe5b906000526020600020018281548110151561186c57fe5b9060005260206000200154905092915050565b6000808281548110151561188f57fe5b906000526020600020906006020160000160009054906101000a900473ffffffffffffffffffffffffffffffffffffffff169050919050565b6003818154811015156118d757fe5b906000526020600020016000915090505481565b60008060006041845114151561190057600080fd5b6020840151915060408401519050606084015160001a9250601b8360ff16101561192b57601b830192505b9193909250565b61193a611f09565b6000826040518082805190602001908083835b602083101515611972578051825260208201915060208101905060208303925061194d565b6001836020036101000a03801982511681845116808217855250505050505090500191505060405180910390206001900490506119b66119b0611e49565b82611e6d565b915050919050565b6119c6611f09565b60007f30644e72e131a029b85045b68181585d97816a916871ca8d3c208c16d87cfd47905060008360000151148015611a03575060008360200151145b15611a265760408051908101604052806000815260200160008152509150611a53565b604080519081016040528084600001518152602001828560200151811515611a4a57fe5b06830381525091505b50919050565b611a61611fe4565b60408051908101604052806040805190810160405280600f548152602001601054815250815260200160408051908101604052806011548152602001601254815250815250905090565b600080600060606000611abc612111565b600087518951141515611ace57600080fd5b8851955060068602945084604051908082528060200260200182016040528015611b075781602001602082028038833980820191505090505b509350600092505b85831015611ce4578883815181101515611b2557fe5b90602001906020020151600001518460006006860201815181101515611b4757fe5b90602001906020020181815250508883815181101515611b6357fe5b90602001906020020151602001518460016006860201815181101515611b8557fe5b90602001906020020181815250508783815181101515611ba157fe5b90602001906020020151600001516000600281101515611bbd57fe5b60200201518460026006860201815181101515611bd657fe5b90602001906020020181815250508783815181101515611bf257fe5b90602001906020020151600001516001600281101515611c0e57fe5b60200201518460036006860201815181101515611c2757fe5b90602001906020020181815250508783815181101515611c4357fe5b90602001906020020151602001516000600281101515611c5f57fe5b60200201518460046006860201815181101515611c7857fe5b90602001906020020181815250508783815181101515611c9457fe5b90602001906020020151602001516001600281101515611cb057fe5b60200201518460056006860201815181101515611cc957fe5b90602001906020020181815250508280600101935050611b0f565b6020826020870260208701600060086107d05a03f190508060008114611d0957611d0b565bfe5b50801515611d1857600080fd5b6000826000600181101515611d2957fe5b60200201511415965050505050505092915050565b60006060806002604051908082528060200260200182016040528015611d7e57816020015b611d6b611f23565b815260200190600190039081611d635790505b5091506002604051908082528060200260200182016040528015611dbc57816020015b611da9611f3d565b815260200190600190039081611da15790505b50905086826000815181101515611dcf57fe5b9060200190602002018190525084826001815181101515611dec57fe5b9060200190602002018190525085816000815181101515611e0957fe5b9060200190602002018190525083816001815181101515611e2657fe5b90602001906020020181905250611e3d8282611aab565b92505050949350505050565b611e51611f09565b6040805190810160405280600181526020016002815250905090565b611e75611f09565b611e7d612134565b60008460000151826000600381101515611e9357fe5b6020020181815250508460200151826001600381101515611eb057fe5b60200201818152505083826002600381101515611ec957fe5b602002018181525050606083608084600060076107d05a03f190508060008114611ef257611ef4565bfe5b50801515611f0157600080fd5b505092915050565b604080519081016040528060008152602001600081525090565b604080519081016040528060008152602001600081525090565b608060405190810160405280611f51612157565b8152602001611f5e612157565b81525090565b828054600181600116156101000203166002900490600052602060002090601f016020900481019282601f10611fa557805160ff1916838001178555611fd3565b82800160010185558215611fd3579182015b82811115611fd2578251825591602001919060010190611fb7565b5b509050611fe09190612179565b5090565b608060405190810160405280611ff8612157565b8152602001612005612157565b81525090565b828054828255906000526020600020908101928215612047579160200282015b8281111561204657825182559160200191906001019061202b565b5b5090506120549190612179565b5090565b828054600181600116156101000203166002900490600052602060002090601f016020900481019282601f1061209157805485556120ce565b828001600101855582156120ce57600052602060002091601f016020900482015b828111156120cd5782548255916001019190600101906120b2565b5b5090506120db9190612179565b5090565b81548183558181111561210c5760020281600202836000526020600020918201910161210b919061219e565b5b505050565b602060405190810160405280600190602082028038833980820191505090505090565b606060405190810160405280600390602082028038833980820191505090505090565b6040805190810160405280600290602082028038833980820191505090505090565b61219b91905b8082111561219757600081600090555060010161217f565b5090565b90565b6121f191905b808211156121ed57600080820160006101000a81549073ffffffffffffffffffffffffffffffffffffffff02191690556001820160006121e491906121f4565b506002016121a4565b5090565b90565b50805460018160011615610100020316600290046000825580601f1061221a5750612239565b601f0160209004906000526020600020908101906122389190612179565b5b50565b600061224882356129ce565b905092915050565b600061225c82516129ee565b905092915050565b600082601f830112151561227757600080fd5b813561228a6122858261291e565b6128f1565b915080825260208301602083018583830111156122a657600080fd5b6122b1838284612a02565b50505092915050565b600082601f83011215156122cd57600080fd5b81356122e06122db8261294a565b6128f1565b915080825260208301602083018583830111156122fc57600080fd5b612307838284612a02565b50505092915050565b600061231c82356129f8565b905092915050565b60006020828403121561233657600080fd5b60006123448482850161223c565b91505092915050565b60008060008060008060c0878903121561236657600080fd5b600061237489828a0161223c565b965050602087013567ffffffffffffffff81111561239157600080fd5b61239d89828a016122ba565b95505060406123ae89828a01612310565b94505060606123bf89828a01612310565b93505060806123d089828a01612310565b92505060a06123e189828a01612310565b9150509295509295509295565b60006020828403121561240057600080fd5b600061240e84828501612250565b91505092915050565b60008060008060008060c0878903121561243057600080fd5b600087013567ffffffffffffffff81111561244a57600080fd5b61245689828a01612264565b965050602061246789828a01612310565b955050604061247889828a01612310565b945050606061248989828a01612310565b935050608061249a89828a01612310565b92505060a06124ab89828a01612310565b9150509295509295509295565b600080600080600080600060e0888a0312156124d357600080fd5b600088013567ffffffffffffffff8111156124ed57600080fd5b6124f98a828b01612264565b975050602061250a8a828b01612310565b965050604061251b8a828b01612310565b955050606061252c8a828b01612310565b945050608061253d8a828b01612310565b93505060a061254e8a828b01612310565b92505060c061255f8a828b01612310565b91505092959891949750929550565b6000806040838503121561258157600080fd5b600083013567ffffffffffffffff81111561259b57600080fd5b6125a7858286016122ba565b925050602083013567ffffffffffffffff8111156125c457600080fd5b6125d085828601612264565b9150509250929050565b6000602082840312156125ec57600080fd5b60006125fa84828501612310565b91505092915050565b6000806040838503121561261657600080fd5b600061262485828601612310565b92505060206126358582860161223c565b9150509250929050565b60008060006060848603121561265457600080fd5b600061266286828701612310565b93505060206126738682870161223c565b925050604084013567ffffffffffffffff81111561269057600080fd5b61269c868287016122ba565b9150509250925092565b600080604083850312156126b957600080fd5b60006126c785828601612310565b92505060206126d885828601612310565b9150509250929050565b6126eb81612981565b82525050565b6126fa816129a1565b82525050565b612709816129ad565b82525050565b600061271a82612976565b80845261272e816020860160208601612a11565b61273781612a44565b602085010191505092915050565b61274e816129b7565b82525050565b61275d816129c1565b82525050565b600060208201905061277860008301846126e2565b92915050565b600060408201905061279360008301856126e2565b81810360208301526127a5818461270f565b90509392505050565b600060c0820190506127c360008301896126e2565b81810360208301526127d5818861270f565b90506127e46040830187612745565b6127f16060830186612745565b6127fe6080830185612745565b61280b60a0830184612745565b979650505050505050565b600060208201905061282b60008301846126f1565b92915050565b60006020820190506128466000830184612700565b92915050565b60006080820190506128616000830187612700565b61286e6020830186612754565b61287b6040830185612700565b6128886060830184612700565b95945050505050565b60006020820190506128a66000830184612745565b92915050565b60006080820190506128c16000830187612745565b6128ce6020830186612745565b6128db6040830185612745565b6128e86060830184612745565b95945050505050565b6000604051905081810181811067ffffffffffffffff8211171561291457600080fd5b8060405250919050565b600067ffffffffffffffff82111561293557600080fd5b601f19601f8301169050602081019050919050565b600067ffffffffffffffff82111561296157600080fd5b601f19601f8301169050602081019050919050565b600081519050919050565b600073ffffffffffffffffffffffffffffffffffffffff82169050919050565b60008115159050919050565b6000819050919050565b6000819050919050565b600060ff82169050919050565b600073ffffffffffffffffffffffffffffffffffffffff82169050919050565b6000819050919050565b6000819050919050565b82818337600083830152505050565b60005b83811015612a2f578082015181840152602081019050612a14565b83811115612a3e576000848401525b50505050565b6000601f19601f83011690509190505600a265627a7a7230582020b6b26bd517f0ba499bcdecbc4ca1a86bed0efa7b848b6e85c24626861f25f06c6578706572696d656e74616cf50037",
  "source": "pragma solidity ^0.4.24;\npragma experimental ABIEncoderV2;\n\ncontract ScaleChain {\n    ScaleNode[] public scale_nodes;\n    mapping(address => uint) scale_id;\n    bytes32[] public curr_hash;\n    uint[] public block_id;\n    uint[][] public signers; \n    SideNode[][10] public token_rings;\n\n    struct G1Point {\n        uint X;\n        uint Y;\n    }\n    struct G2Point {\n        uint[2] X;\n        uint[2] Y;\n    }\n    uint g2x1 = 11559732032986387107991004021392285783925812861821192530917403151452391805634;\n    uint g2x2 = 10857046999023057135944570762232829481370756359578518086990519993285655852781;\n    uint g2y1 = 4082367875863433681332203403145435568316851327593401208105741076214120093531;\n    uint g2y2 = 8495653923123431417604973247489272438418190587263600148770280649306958101930;\n\n\n    function P1() internal returns (G1Point) {\n        return G1Point(1, 2);\n    }\n\n    function P2() internal returns (G2Point) {\n        return G2Point([g2x1, g2x2], [g2y1, g2y2]);\n    }\n    struct ScaleNode {\n        address eth_addr;\n        string ip_addr;\n        uint pkx1;\n        uint pkx2;\n        uint pky1;\n        uint pky2;\n\n    }\n\n    struct SideNode {\n        address eth_addr;\n        string ip_addr;\n    }\n    // Initialize ScaleNodes so that a sender of a new block\n    // has to be one of the scaleNode\n    constructor(address admin_addr) public {\n        scale_nodes.push(ScaleNode({\n            eth_addr: admin_addr,\n            ip_addr: \"localhost\",\n            pkx1: g2x1,\n            pkx2: g2x2,\n            pky1: g2y1,\n            pky2: g2y2\n        }));\n        scale_id[admin_addr] = 0;\n        addSideChain();\n    }\n\n    // Current ScaleNode authorize new ScaleNode\n    // Note: check msg.sender and not duplicate\n    function addScaleNode(address new_scale_node, string ip_addr, uint pkx1, uint pkx2, uint pky1, uint pky2) public {\n        require (scale_nodes[scale_id[msg.sender]].eth_addr == msg.sender);\n        require (new_scale_node != scale_nodes[0].eth_addr);\n        require (scale_id[new_scale_node] == 0);\n        scale_nodes.push(ScaleNode({\n            eth_addr: new_scale_node,\n            ip_addr: ip_addr,\n            pkx1: pkx1,\n            pkx2: pkx2,\n            pky1: pky1,\n            pky2: pky2\n        }));\n        scale_id[new_scale_node] = scale_nodes.length-1;\n    }\n\n    function addSideChain() public {\n        block_id.push(0);\n        curr_hash.push(0);\n        uint[] memory new_signers; \n        signers.push(new_signers);\n        //SideNode[] memory new_token_ring;\n        //token_rings.push(new_token_ring);\n    }\n\n    function addSideNode(uint sid, address new_side_node, string ip_addr) public {\n        token_rings[sid].push(SideNode({\n            eth_addr: new_side_node,\n            ip_addr: ip_addr\n        }));\n        /*\n        token_ring.push(SideNode({\n            eth_addr: new_side_node,\n            ip_addr: ip_addr\n        }));\n        */\n    }\n\n    function deleteSideNode(uint sid, uint tid) public {\n        //require (token_rings[sid][tid].eth_addr == msg.sender);\n        for (uint i = tid; i < token_rings[sid].length-1; i++){\n            token_rings[sid][i] = token_rings[sid][i+1];\n        }\n        token_rings[sid].length--;\n        //require (token_ring[tid].eth_addr == msg.sender);\n        //delete token_ring[tid];\n    }\n\n    function getSideNodeID(uint sid, address node) public view returns (uint tid) {\n        tid = token_rings[sid].length;\n        for (uint i = 0; i < token_rings[sid].length; i++) {\n            if (token_rings[sid][i].eth_addr == node) {\n                tid = i;\n            }\n        }\n        require(tid < token_rings[sid].length);\n        /*tid = token_ring.length;\n        for (uint i = 0; i < token_ring.length; i++) {\n            if (token_ring[i].eth_addr == node) {\n                tid = i;\n            }\n        }\n        require(tid < token_ring.length);\n*/\n\n    }\n\n    // Get Ether node addresses\n    function getScaleNode(uint id) public view\n        returns (address scale_node_address) {\n            scale_node_address = scale_nodes[id].eth_addr;\n    }\n\n    function getScaleID(address addr) public view\n        returns (uint id) {\n            id = scale_id[addr];\n    }\n\n    function getScalePubKey(address addr) public view\n        returns (uint, uint, uint, uint) {\n            uint id = scale_id[addr];\n            return (scale_nodes[id].pkx1, scale_nodes[id].pkx2, scale_nodes[id].pky1, scale_nodes[id].pky2);\n    }\n\n    function getCurrentHash(uint sid) public view\n        returns (bytes32 currentHash) {\n            currentHash = curr_hash[sid];\n    }\n\n    function getBlockID(uint sid) public view\n        returns (uint bid) {\n            bid = block_id[sid];\n    }\n\n    function getSigners(uint sid, uint bid) public view returns(uint bitset) {\n        bitset = signers[sid][bid];\n    }\n\n    function sideChainsCount() public view\n        returns (uint number_of_sideChains) {\n            number_of_sideChains = block_id.length;\n    }\n\n    // Get # of Ether nodes\n    function scaleNodesCount() public view\n        returns (uint number_of_scaleNodes) {\n            number_of_scaleNodes = scale_nodes.length;\n    }\n\n\n    function resetSideChain(uint sid) public {\n        block_id[sid] = 0;\n        curr_hash[sid] = 0;\n        uint[] memory new_signers; \n        signers[sid] = new_signers;\n    }\n    \n    \n\n    function submitVote(bytes block_header, uint sid, uint bid, uint sigx, uint sigy, uint bitset) public {\n        // 1.check sent by one of scaleNodes\n        require(scale_nodes[scale_id[msg.sender]].eth_addr == msg.sender);\n\n        // 2. check block id\n        require(bid == block_id[sid] + 1);\n\n\n        // 3. check signature aggregation\n        require (bitset % 2 == 0);\n        uint bs = bitset / 2;\n        uint cnt = 0;\n        while (bs > 0) {\n            if (bs % 2 == 1) {\n                cnt += 1;\n            }\n            bs /= 2;\n        }\n        G1Point memory h0 = hashToG1(block_header);\n        \n        G1Point[] memory a = new G1Point[](cnt+1);\n        G2Point[] memory b = new G2Point[](cnt+1);\n        a[0] = negate(G1Point(sigx, sigy));\n        b[0] = P2();\n        bs = bitset / 2;\n        uint j = 1;\n        uint k = 1;\n        while (bs > 0) {\n            if (bs % 2 == 1) {\n                a[k] = h0;\n                b[k] = G2Point([scale_nodes[j].pkx1, scale_nodes[j].pkx2], [scale_nodes[j].pky1, scale_nodes[j].pky2]);\n                k += 1;\n            }\n            j += 1;\n            bs /= 2;\n        }\n        require(pairing(a, b));\n\n\n        // If pass, update hash\n        curr_hash[sid] = sha256(curr_hash[sid], sha256(block_header));\n        signers[sid].push(bitset);\n        block_id[sid] = block_id[sid] + 1;\n    }\n\n    \n    function verifyBLS(bytes message, uint sigx, uint sigy, uint pkx1, uint pkx2, uint pky1, uint pky2) returns (bool) {\n        G1Point memory signature = G1Point(sigx, sigy);\n        G2Point memory pub_key = G2Point([pkx1, pkx2], [pky1, pky2]);\n        G1Point memory h = hashToG1(message);\n        return pairing2(negate(signature), P2(), h, pub_key);\n    }\n\n    function hashToG1(bytes message) internal returns (G1Point) {\n        uint256 h = uint256(keccak256(message));\n        return mul(P1(), h);\n    }\n\n    function modPow(uint256 base, uint256 exponent, uint256 modulus) internal returns (uint256) {\n        uint256[6] memory input = [32, 32, 32, base, exponent, modulus];\n        uint256[1] memory result;\n        assembly {\n            if iszero(call(not(0), 0x05, 0, input, 0xc0, result, 0x20)) {\n                revert(0, 0)\n            }\n        }\n        return result[0];\n    }\n\n    /// @return the negation of p, i.e. p.add(p.negate()) should be zero.\n    function negate(G1Point p) internal returns (G1Point) {\n        // The prime q in the base field F_q for G1\n        uint q = 21888242871839275222246405745257275088696311157297823662689037894645226208583;\n        if (p.X == 0 && p.Y == 0)\n            return G1Point(0, 0);\n        return G1Point(p.X, q - (p.Y % q));\n    }\n\n    /// @return the sum of two points of G1\n    function add(G1Point p1, G1Point p2) internal returns (G1Point r) {\n        uint[4] memory input;\n        input[0] = p1.X;\n        input[1] = p1.Y;\n        input[2] = p2.X;\n        input[3] = p2.Y;\n        bool success;\n        assembly {\n            success := call(sub(gas, 2000), 6, 0, input, 0xc0, r, 0x60)\n        // Use \"invalid\" to make gas estimation work\n            switch success case 0 {invalid}\n        }\n        require(success);\n    }\n    /// @return the product of a point on G1 and a scalar, i.e.\n    /// p == p.mul(1) and p.add(p) == p.mul(2) for all points p.\n    function mul(G1Point p, uint s) internal returns (G1Point r) {\n        uint[3] memory input;\n        input[0] = p.X;\n        input[1] = p.Y;\n        input[2] = s;\n        bool success;\n        assembly {\n            success := call(sub(gas, 2000), 7, 0, input, 0x80, r, 0x60)\n        // Use \"invalid\" to make gas estimation work\n            switch success case 0 {invalid}\n        }\n        require(success);\n    }\n\n\n    function splitSignature(bytes memory sig) internal pure returns (uint8 v, bytes32 r, bytes32 s) {\n        require(sig.length == 65);\n        assembly {\n            r := mload(add(sig, 32))\n            s := mload(add(sig, 64))\n            v := byte(0, mload(add(sig, 96)))\n        }\n        if (v < 27) v = v + 27;\n    }\n\n    function recoverSigner(string block, bytes sig) returns (address signer_address) {\n        bytes memory prefix = \"\\x19Ethereum Signed Message:\\n32\";\n        bytes32 prefixedHash = sha3(prefix, sha3(block));\n        (uint8 v, bytes32 r, bytes32 s) = splitSignature(sig);\n        signer_address = ecrecover(prefixedHash, v, r, s);\n    }\n    \n/*    function proposeBlock(string block_header, bytes signature, uint new_block_id) public {\n        \n        // 1.check signed by one of scaleNode\n        address signer_address = recoverSigner(block_header, signature);\n        require (scale_nodes[scale_id[signer_address]].eth_addr == signer_address);\n\n        //Check whether the new_block_id = block_id + 1. If not, reject the block. \n        require (block_id + 1 == new_block_id);\n\n        // 2. update hash tentative codes\n        bytes32 new_hash = sha256(curr_hash, sha256(block_header));\n        curr_hash = new_hash;\n        block_id = block_id + 1;\n    }\n*/\n    function pairing(G1Point[] p1, G2Point[] p2) internal returns (bool) {\n        require(p1.length == p2.length);\n        uint elements = p1.length;\n        uint inputSize = elements * 6;\n        uint[] memory input = new uint[](inputSize);\n\n        for (uint i = 0; i < elements; i++)\n        {\n            input[i * 6 + 0] = p1[i].X;\n            input[i * 6 + 1] = p1[i].Y;\n            input[i * 6 + 2] = p2[i].X[0];\n            input[i * 6 + 3] = p2[i].X[1];\n            input[i * 6 + 4] = p2[i].Y[0];\n            input[i * 6 + 5] = p2[i].Y[1];\n        }\n\n        uint[1] memory out;\n        bool success;\n\n        assembly {\n            success := call(sub(gas, 2000), 8, 0, add(input, 0x20), mul(inputSize, 0x20), out, 0x20)\n        // Use \"invalid\" to make gas estimation work\n            switch success case 0 {invalid}\n        }\n        require(success);\n        return out[0] != 0;\n    }\n\n    function pairing2(G1Point a1, G2Point a2, G1Point b1, G2Point b2) internal returns (bool) {\n        G1Point[] memory p1 = new G1Point[](2);\n        G2Point[] memory p2 = new G2Point[](2);\n        p1[0] = a1;\n        p1[1] = b1;\n        p2[0] = a2;\n        p2[1] = b2;\n        return pairing(p1, p2);\n    }\n\n\n\n\n    \n\n}",
  "sourcePath": "/Users/spy/debug/ScaleChain/ScaleChain_v2/contracts/ScaleChain.sol",
  "compiler": {
    "name": "solc",
    "version": "0.4.24+commit.e67f0147.Emscripten.clang"
  },
  "schemaVersion": "3.2.0",
  "updatedAt": "2020-08-13T06:38:29.438Z",
  "networkType": "ethereum",
  "devdoc": {
    "methods": {}
  },
  "userdoc": {
    "methods": {}
  }
}