{
  "contractName": "ScaleChain",
  "abi": [
    {
      "constant": true,
      "inputs": [
        {
          "name": "",
          "type": "uint256"
        }
      ],
      "name": "curr_hash",
      "outputs": [
        {
          "name": "",
          "type": "bytes32"
        }
      ],
      "payable": false,
      "stateMutability": "view",
      "type": "function"
    },
    {
      "constant": true,
      "inputs": [
        {
          "name": "",
          "type": "uint256"
        }
      ],
      "name": "scale_nodes",
      "outputs": [
        {
          "name": "eth_addr",
          "type": "address"
        },
        {
          "name": "ip_addr",
          "type": "string"
        },
        {
          "name": "pkx1",
          "type": "uint256"
        },
        {
          "name": "pkx2",
          "type": "uint256"
        },
        {
          "name": "pky1",
          "type": "uint256"
        },
        {
          "name": "pky2",
          "type": "uint256"
        }
      ],
      "payable": false,
      "stateMutability": "view",
      "type": "function"
    },
    {
      "constant": true,
      "inputs": [
        {
          "name": "",
          "type": "uint256"
        }
      ],
      "name": "block_id",
      "outputs": [
        {
          "name": "",
          "type": "uint256"
        }
      ],
      "payable": false,
      "stateMutability": "view",
      "type": "function"
    },
    {
      "inputs": [
        {
          "name": "admin_addr",
          "type": "address"
        }
      ],
      "payable": false,
      "stateMutability": "nonpayable",
      "type": "constructor"
    },
    {
      "constant": false,
      "inputs": [
        {
          "name": "new_scale_node",
          "type": "address"
        },
        {
          "name": "ip_addr",
          "type": "string"
        },
        {
          "name": "pkx1",
          "type": "uint256"
        },
        {
          "name": "pkx2",
          "type": "uint256"
        },
        {
          "name": "pky1",
          "type": "uint256"
        },
        {
          "name": "pky2",
          "type": "uint256"
        }
      ],
      "name": "addScaleNode",
      "outputs": [],
      "payable": false,
      "stateMutability": "nonpayable",
      "type": "function"
    },
    {
      "constant": false,
      "inputs": [],
      "name": "addSideChain",
      "outputs": [],
      "payable": false,
      "stateMutability": "nonpayable",
      "type": "function"
    },
    {
      "constant": true,
      "inputs": [
        {
          "name": "id",
          "type": "uint256"
        }
      ],
      "name": "getScaleNode",
      "outputs": [
        {
          "name": "scale_node_address",
          "type": "address"
        }
      ],
      "payable": false,
      "stateMutability": "view",
      "type": "function"
    },
    {
      "constant": true,
      "inputs": [
        {
          "name": "addr",
          "type": "address"
        }
      ],
      "name": "getScaleID",
      "outputs": [
        {
          "name": "id",
          "type": "uint256"
        }
      ],
      "payable": false,
      "stateMutability": "view",
      "type": "function"
    },
    {
      "constant": true,
      "inputs": [
        {
          "name": "addr",
          "type": "address"
        }
      ],
      "name": "getScalePubKey",
      "outputs": [
        {
          "name": "",
          "type": "uint256"
        },
        {
          "name": "",
          "type": "uint256"
        },
        {
          "name": "",
          "type": "uint256"
        },
        {
          "name": "",
          "type": "uint256"
        }
      ],
      "payable": false,
      "stateMutability": "view",
      "type": "function"
    },
    {
      "constant": true,
      "inputs": [
        {
          "name": "sid",
          "type": "uint256"
        }
      ],
      "name": "getCurrentHash",
      "outputs": [
        {
          "name": "currentHash",
          "type": "bytes32"
        }
      ],
      "payable": false,
      "stateMutability": "view",
      "type": "function"
    },
    {
      "constant": true,
      "inputs": [
        {
          "name": "sid",
          "type": "uint256"
        }
      ],
      "name": "getBlockID",
      "outputs": [
        {
          "name": "bid",
          "type": "uint256"
        }
      ],
      "payable": false,
      "stateMutability": "view",
      "type": "function"
    },
    {
      "constant": true,
      "inputs": [],
      "name": "sideChainsCount",
      "outputs": [
        {
          "name": "number_of_sideChains",
          "type": "uint256"
        }
      ],
      "payable": false,
      "stateMutability": "view",
      "type": "function"
    },
    {
      "constant": true,
      "inputs": [],
      "name": "scaleNodesCount",
      "outputs": [
        {
          "name": "number_of_scaleNodes",
          "type": "uint256"
        }
      ],
      "payable": false,
      "stateMutability": "view",
      "type": "function"
    },
    {
      "constant": false,
      "inputs": [
        {
          "name": "block",
          "type": "string"
        },
        {
          "name": "sig",
          "type": "bytes"
        }
      ],
      "name": "recoverSigner",
      "outputs": [
        {
          "name": "signer_address",
          "type": "address"
        }
      ],
      "payable": false,
      "stateMutability": "nonpayable",
      "type": "function"
    },
    {
      "constant": false,
      "inputs": [
        {
          "name": "block_header",
          "type": "bytes"
        },
        {
          "name": "sid",
          "type": "uint256"
        },
        {
          "name": "sigx",
          "type": "uint256"
        },
        {
          "name": "sigy",
          "type": "uint256"
        },
        {
          "name": "bitset",
          "type": "uint256"
        }
      ],
      "name": "submitVote",
      "outputs": [],
      "payable": false,
      "stateMutability": "nonpayable",
      "type": "function"
    },
    {
      "constant": false,
      "inputs": [
        {
          "name": "message",
          "type": "bytes"
        },
        {
          "name": "sigx",
          "type": "uint256"
        },
        {
          "name": "sigy",
          "type": "uint256"
        },
        {
          "name": "pkx1",
          "type": "uint256"
        },
        {
          "name": "pkx2",
          "type": "uint256"
        },
        {
          "name": "pky1",
          "type": "uint256"
        },
        {
          "name": "pky2",
          "type": "uint256"
        }
      ],
      "name": "verifyBLS",
      "outputs": [
        {
          "name": "",
          "type": "bool"
        }
      ],
      "payable": false,
      "stateMutability": "nonpayable",
      "type": "function"
    }
  ],
  "bytecode": "0x60806040527f198e9393920d483a7260bfb731fb5d25f1aa493335a9e71297e485b7aef312c26004557f1800deef121f1e76426a00665e5c4479674322d4f75edadd46debd5cd992f6ed6005557f090689d0585ff075ec9e99ad690c3395bc4b313370b38ef355acdadcd122975b6006557f12c85ea5db8c6deb4aab71808dcb408fe3d1e7690c43d37b4ce6cc0166fa7daa600755348015620000a157600080fd5b506040516020806200245c8339810180604052620000c3919081019062000391565b600060c0604051908101604052808373ffffffffffffffffffffffffffffffffffffffff1681526020016040805190810160405280600981526020017f6c6f63616c686f7374000000000000000000000000000000000000000000000081525081526020016004548152602001600554815260200160065481526020016007548152509080600181540180825580915050906001820390600052602060002090600602016000909192909190915060008201518160000160006101000a81548173ffffffffffffffffffffffffffffffffffffffff021916908373ffffffffffffffffffffffffffffffffffffffff1602179055506020820151816001019080519060200190620001d6929190620002cc565b5060408201518160020155606082015181600301556080820151816004015560a082015181600501555050506000600160008373ffffffffffffffffffffffffffffffffffffffff1673ffffffffffffffffffffffffffffffffffffffff168152602001908152602001600020819055506200026062000267640100000000026401000000009004565b50620003dd565b600360009080600181540180825580915050906001820390600052602060002001600090919290919091505550600260009080600181540180825580915050906001820390600052602060002001600090919260010290919091509060001916905550565b828054600181600116156101000203166002900490600052602060002090601f016020900481019282601f106200030f57805160ff191683800117855562000340565b8280016001018555821562000340579182015b828111156200033f57825182559160200191906001019062000322565b5b5090506200034f919062000353565b5090565b6200037891905b80821115620003745760008160009055506001016200035a565b5090565b90565b6000620003898251620003bd565b905092915050565b600060208284031215620003a457600080fd5b6000620003b4848285016200037b565b91505092915050565b600073ffffffffffffffffffffffffffffffffffffffff82169050919050565b61206f80620003ed6000396000f3006080604052600436106100da576000357c0100000000000000000000000000000000000000000000000000000000900463ffffffff168062fd4984146100df5780633bfda7b61461011c5780633f5d07af146101595780633f92958f14610196578063495175f7146101d3578063525e146014610215578063839f013014610240578063891948531461027d57806396477f7f146102ba578063ba54e66f146102e3578063bd877ca41461030c578063c0978a7d14610337578063d382fb3414610377578063e1bc81a21461038e578063fc922e07146103cb575b600080fd5b3480156100eb57600080fd5b5061010660048036036101019190810190611c5d565b610408565b6040516101139190611d73565b60405180910390f35b34801561012857600080fd5b50610143600480360361013e9190810190611ba7565b61058e565b6040516101509190611df6565b60405180910390f35b34801561016557600080fd5b50610180600480360361017b9190810190611cc9565b610634565b60405161018d9190611e11565b60405180910390f35b3480156101a257600080fd5b506101bd60048036036101b89190810190611cc9565b610657565b6040516101ca9190611e71565b60405180910390f35b3480156101df57600080fd5b506101fa60048036036101f59190810190611cc9565b61067a565b60405161020c96959493929190611d8e565b60405180910390f35b34801561022157600080fd5b5061022a61077d565b6040516102379190611e71565b60405180910390f35b34801561024c57600080fd5b5061026760048036036102629190810190611cc9565b610789565b6040516102749190611e11565b60405180910390f35b34801561028957600080fd5b506102a4600480360361029f9190810190611a25565b6107ac565b6040516102b19190611e71565b60405180910390f35b3480156102c657600080fd5b506102e160048036036102dc9190810190611a4e565b6107f5565b005b3480156102ef57600080fd5b5061030a60048036036103059190810190611b18565b610acb565b005b34801561031857600080fd5b50610321610fd4565b60405161032e9190611e71565b60405180910390f35b34801561034357600080fd5b5061035e60048036036103599190810190611a25565b610fe1565b60405161036e9493929190611e8c565b60405180910390f35b34801561038357600080fd5b5061038c6110bf565b005b34801561039a57600080fd5b506103b560048036036103b09190810190611cc9565b611124565b6040516103c29190611d73565b60405180910390f35b3480156103d757600080fd5b506103f260048036036103ed9190810190611cc9565b61116d565b6040516103ff9190611e71565b60405180910390f35b600060606000806000806040805190810160405280601c81526020017f19457468657265756d205369676e6564204d6573736167653a0a333200000000815250945084886040518082805190602001908083835b602083101515610481578051825260208201915060208101905060208303925061045c565b6001836020036101000a03801982511681845116808217855250505050505090500191505060405180910390206040518083805190602001908083835b6020831015156104e357805182526020820191506020810190506020830392506104be565b6001836020036101000a0380198251168184511680821785525050505050509050018260001916600019168152602001925050506040518091039020935061052a87611190565b925092509250600184848484604051600081526020016040526040516105539493929190611e2c565b60206040516020810390808403906000865af1158015610577573d6000803e3d6000fd5b505050602060405103519550505050505092915050565b60006105986117ae565b6105a06117c8565b6105a86117ae565b60408051908101604052808b81526020018a8152509250604080519081016040528060408051908101604052808b81526020018a815250815260200160408051908101604052808981526020018881525081525091506106078b6111d7565b905061062461061584611263565b61061d6112fe565b8385611350565b9350505050979650505050505050565b60028181548110151561064357fe5b906000526020600020016000915090505481565b600060038281548110151561066857fe5b90600052602060002001549050919050565b60008181548110151561068957fe5b90600052602060002090600602016000915090508060000160009054906101000a900473ffffffffffffffffffffffffffffffffffffffff1690806001018054600181600116156101000203166002900480601f01602080910402602001604051908101604052809291908181526020018280546001816001161561010002031660029004801561075b5780601f106107305761010080835404028352916020019161075b565b820191906000526020600020905b81548152906001019060200180831161073e57829003601f168201915b5050505050908060020154908060030154908060040154908060050154905086565b60008080549050905090565b600060028281548110151561079a57fe5b90600052602060002001549050919050565b6000600160008373ffffffffffffffffffffffffffffffffffffffff1673ffffffffffffffffffffffffffffffffffffffff168152602001908152602001600020549050919050565b3373ffffffffffffffffffffffffffffffffffffffff166000600160003373ffffffffffffffffffffffffffffffffffffffff1673ffffffffffffffffffffffffffffffffffffffff1681526020019081526020016000205481548110151561085a57fe5b906000526020600020906006020160000160009054906101000a900473ffffffffffffffffffffffffffffffffffffffff1673ffffffffffffffffffffffffffffffffffffffff161415156108ae57600080fd5b6000808154811015156108bd57fe5b906000526020600020906006020160000160009054906101000a900473ffffffffffffffffffffffffffffffffffffffff1673ffffffffffffffffffffffffffffffffffffffff168673ffffffffffffffffffffffffffffffffffffffff161415151561092957600080fd5b6000600160008873ffffffffffffffffffffffffffffffffffffffff1673ffffffffffffffffffffffffffffffffffffffff1681526020019081526020016000205414151561097757600080fd5b600060c0604051908101604052808873ffffffffffffffffffffffffffffffffffffffff168152602001878152602001868152602001858152602001848152602001838152509080600181540180825580915050906001820390600052602060002090600602016000909192909190915060008201518160000160006101000a81548173ffffffffffffffffffffffffffffffffffffffff021916908373ffffffffffffffffffffffffffffffffffffffff1602179055506020820151816001019080519060200190610a4b9291906117ef565b5060408201518160020155606082015181600301556080820151816004015560a08201518160050155505050600160008054905003600160008873ffffffffffffffffffffffffffffffffffffffff1673ffffffffffffffffffffffffffffffffffffffff16815260200190815260200160002081905550505050505050565b600080610ad66117ae565b60608060008060003373ffffffffffffffffffffffffffffffffffffffff166000600160003373ffffffffffffffffffffffffffffffffffffffff1673ffffffffffffffffffffffffffffffffffffffff16815260200190815260200160002054815481101515610b4357fe5b906000526020600020906006020160000160009054906101000a900473ffffffffffffffffffffffffffffffffffffffff1673ffffffffffffffffffffffffffffffffffffffff16141515610b9757600080fd5b600060028a811515610ba557fe5b06141515610bb257600080fd5b600289811515610bbe57fe5b049750600096505b6000881115610bff576001600289811515610bdd57fe5b061415610beb576001870196505b600288811515610bf757fe5b049750610bc6565b610c088d6111d7565b955060018701604051908082528060200260200182016040528015610c4757816020015b610c3461186f565b815260200190600190039081610c2c5790505b50945060018701604051908082528060200260200182016040528015610c8757816020015b610c74611889565b815260200190600190039081610c6c5790505b509350610ca760408051908101604052808d81526020018c815250611263565b856000815181101515610cb657fe5b90602001906020020181905250610ccb6112fe565b846000815181101515610cda57fe5b90602001906020020181905250600289811515610cf357fe5b04975060019250600191505b6000881115610e32576001600289811515610d1657fe5b061415610e1857858583815181101515610d2c57fe5b9060200190602002018190525060408051908101604052806040805190810160405280600087815481101515610d5e57fe5b9060005260206000209060060201600201548152602001600087815481101515610d8457fe5b90600052602060002090600602016003015481525081526020016040805190810160405280600087815481101515610db857fe5b9060005260206000209060060201600401548152602001600087815481101515610dde57fe5b9060005260206000209060060201600501548152508152508483815181101515610e0457fe5b906020019060200201819052506001820191505b600183019250600288811515610e2a57fe5b049750610cff565b610e3c858561145b565b1515610e4757600080fd5b6002808d815481101515610e5757fe5b906000526020600020015460028f6040518082805190602001908083835b602083101515610e9a5780518252602082019150602081019050602083039250610e75565b6001836020036101000a0380198251168184511680821785525050505050509050019150506020604051808303816000865af1158015610ede573d6000803e3d6000fd5b5050506040513d601f19601f82011682018060405250610f019190810190611aef565b6040518083600019166000191681526020018260001916600019168152602001925050506020604051808303816000865af1158015610f44573d6000803e3d6000fd5b5050506040513d601f19601f82011682018060405250610f679190810190611aef565b90508060028d815481101515610f7957fe5b906000526020600020018160001916905550600160038d815481101515610f9c57fe5b90600052602060002001540160038d815481101515610fb757fe5b906000526020600020018190555050505050505050505050505050565b6000600380549050905090565b6000806000806000600160008773ffffffffffffffffffffffffffffffffffffffff1673ffffffffffffffffffffffffffffffffffffffff16815260200190815260200160002054905060008181548110151561103a57fe5b90600052602060002090600602016002015460008281548110151561105b57fe5b90600052602060002090600602016003015460008381548110151561107c57fe5b90600052602060002090600602016004015460008481548110151561109d57fe5b9060005260206000209060060201600501549450945094509450509193509193565b600360009080600181540180825580915050906001820390600052602060002001600090919290919091505550600260009080600181540180825580915050906001820390600052602060002001600090919260010290919091509060001916905550565b6000808281548110151561113457fe5b906000526020600020906006020160000160009054906101000a900473ffffffffffffffffffffffffffffffffffffffff169050919050565b60038181548110151561117c57fe5b906000526020600020016000915090505481565b6000806000604184511415156111a557600080fd5b6020840151915060408401519050606084015160001a9250601b8360ff1610156111d057601b830192505b9193909250565b6111df6117ae565b6000826040518082805190602001908083835b60208310151561121757805182526020820191506020810190506020830392506111f2565b6001836020036101000a038019825116818451168082178552505050505050905001915050604051809103902060019004905061125b6112556116ee565b82611712565b915050919050565b61126b6117ae565b60007f30644e72e131a029b85045b68181585d97816a916871ca8d3c208c16d87cfd479050600083600001511480156112a8575060008360200151145b156112cb57604080519081016040528060008152602001600081525091506112f8565b6040805190810160405280846000015181526020018285602001518115156112ef57fe5b06830381525091505b50919050565b6113066117c8565b604080519081016040528060408051908101604052806004548152602001600554815250815260200160408051908101604052806006548152602001600754815250815250905090565b6000606080600260405190808252806020026020018201604052801561139057816020015b61137d61186f565b8152602001906001900390816113755790505b50915060026040519080825280602002602001820160405280156113ce57816020015b6113bb611889565b8152602001906001900390816113b35790505b509050868260008151811015156113e157fe5b90602001906020020181905250848260018151811015156113fe57fe5b906020019060200201819052508581600081518110151561141b57fe5b906020019060200201819052508381600181518110151561143857fe5b9060200190602002018190525061144f828261145b565b92505050949350505050565b60008060006060600061146c6118b0565b60008751895114151561147e57600080fd5b88519550600686029450846040519080825280602002602001820160405280156114b75781602001602082028038833980820191505090505b509350600092505b858310156116945788838151811015156114d557fe5b906020019060200201516000015184600060068602018151811015156114f757fe5b9060200190602002018181525050888381518110151561151357fe5b9060200190602002015160200151846001600686020181518110151561153557fe5b9060200190602002018181525050878381518110151561155157fe5b9060200190602002015160000151600060028110151561156d57fe5b6020020151846002600686020181518110151561158657fe5b906020019060200201818152505087838151811015156115a257fe5b906020019060200201516000015160016002811015156115be57fe5b602002015184600360068602018151811015156115d757fe5b906020019060200201818152505087838151811015156115f357fe5b9060200190602002015160200151600060028110151561160f57fe5b6020020151846004600686020181518110151561162857fe5b9060200190602002018181525050878381518110151561164457fe5b9060200190602002015160200151600160028110151561166057fe5b6020020151846005600686020181518110151561167957fe5b906020019060200201818152505082806001019350506114bf565b6020826020870260208701600060086107d05a03f1905080600081146116b9576116bb565bfe5b508015156116c857600080fd5b60008260006001811015156116d957fe5b60200201511415965050505050505092915050565b6116f66117ae565b6040805190810160405280600181526020016002815250905090565b61171a6117ae565b6117226118d3565b6000846000015182600060038110151561173857fe5b602002018181525050846020015182600160038110151561175557fe5b6020020181815250508382600260038110151561176e57fe5b602002018181525050606083608084600060076107d05a03f19050806000811461179757611799565bfe5b508015156117a657600080fd5b505092915050565b604080519081016040528060008152602001600081525090565b6080604051908101604052806117dc6118f6565b81526020016117e96118f6565b81525090565b828054600181600116156101000203166002900490600052602060002090601f016020900481019282601f1061183057805160ff191683800117855561185e565b8280016001018555821561185e579182015b8281111561185d578251825591602001919060010190611842565b5b50905061186b9190611918565b5090565b604080519081016040528060008152602001600081525090565b60806040519081016040528061189d6118f6565b81526020016118aa6118f6565b81525090565b602060405190810160405280600190602082028038833980820191505090505090565b606060405190810160405280600390602082028038833980820191505090505090565b6040805190810160405280600290602082028038833980820191505090505090565b61193a91905b8082111561193657600081600090555060010161191e565b5090565b90565b60006119498235611fae565b905092915050565b600061195d8251611fce565b905092915050565b600082601f830112151561197857600080fd5b813561198b61198682611efe565b611ed1565b915080825260208301602083018583830111156119a757600080fd5b6119b2838284611fe2565b50505092915050565b600082601f83011215156119ce57600080fd5b81356119e16119dc82611f2a565b611ed1565b915080825260208301602083018583830111156119fd57600080fd5b611a08838284611fe2565b50505092915050565b6000611a1d8235611fd8565b905092915050565b600060208284031215611a3757600080fd5b6000611a458482850161193d565b91505092915050565b60008060008060008060c08789031215611a6757600080fd5b6000611a7589828a0161193d565b965050602087013567ffffffffffffffff811115611a9257600080fd5b611a9e89828a016119bb565b9550506040611aaf89828a01611a11565b9450506060611ac089828a01611a11565b9350506080611ad189828a01611a11565b92505060a0611ae289828a01611a11565b9150509295509295509295565b600060208284031215611b0157600080fd5b6000611b0f84828501611951565b91505092915050565b600080600080600060a08688031215611b3057600080fd5b600086013567ffffffffffffffff811115611b4a57600080fd5b611b5688828901611965565b9550506020611b6788828901611a11565b9450506040611b7888828901611a11565b9350506060611b8988828901611a11565b9250506080611b9a88828901611a11565b9150509295509295909350565b600080600080600080600060e0888a031215611bc257600080fd5b600088013567ffffffffffffffff811115611bdc57600080fd5b611be88a828b01611965565b9750506020611bf98a828b01611a11565b9650506040611c0a8a828b01611a11565b9550506060611c1b8a828b01611a11565b9450506080611c2c8a828b01611a11565b93505060a0611c3d8a828b01611a11565b92505060c0611c4e8a828b01611a11565b91505092959891949750929550565b60008060408385031215611c7057600080fd5b600083013567ffffffffffffffff811115611c8a57600080fd5b611c96858286016119bb565b925050602083013567ffffffffffffffff811115611cb357600080fd5b611cbf85828601611965565b9150509250929050565b600060208284031215611cdb57600080fd5b6000611ce984828501611a11565b91505092915050565b611cfb81611f61565b82525050565b611d0a81611f81565b82525050565b611d1981611f8d565b82525050565b6000611d2a82611f56565b808452611d3e816020860160208601611ff1565b611d4781612024565b602085010191505092915050565b611d5e81611f97565b82525050565b611d6d81611fa1565b82525050565b6000602082019050611d886000830184611cf2565b92915050565b600060c082019050611da36000830189611cf2565b8181036020830152611db58188611d1f565b9050611dc46040830187611d55565b611dd16060830186611d55565b611dde6080830185611d55565b611deb60a0830184611d55565b979650505050505050565b6000602082019050611e0b6000830184611d01565b92915050565b6000602082019050611e266000830184611d10565b92915050565b6000608082019050611e416000830187611d10565b611e4e6020830186611d64565b611e5b6040830185611d10565b611e686060830184611d10565b95945050505050565b6000602082019050611e866000830184611d55565b92915050565b6000608082019050611ea16000830187611d55565b611eae6020830186611d55565b611ebb6040830185611d55565b611ec86060830184611d55565b95945050505050565b6000604051905081810181811067ffffffffffffffff82111715611ef457600080fd5b8060405250919050565b600067ffffffffffffffff821115611f1557600080fd5b601f19601f8301169050602081019050919050565b600067ffffffffffffffff821115611f4157600080fd5b601f19601f8301169050602081019050919050565b600081519050919050565b600073ffffffffffffffffffffffffffffffffffffffff82169050919050565b60008115159050919050565b6000819050919050565b6000819050919050565b600060ff82169050919050565b600073ffffffffffffffffffffffffffffffffffffffff82169050919050565b6000819050919050565b6000819050919050565b82818337600083830152505050565b60005b8381101561200f578082015181840152602081019050611ff4565b8381111561201e576000848401525b50505050565b6000601f19601f83011690509190505600a265627a7a72305820eb1d7bffa23e86d3aadbd2cd89d60f8938c3c009ab06de4ca2a06d1ce19b47b76c6578706572696d656e74616cf50037",
  "source": "pragma solidity ^0.4.24;\npragma experimental ABIEncoderV2;\n\ncontract ScaleChain {\n    ScaleNode[] public scale_nodes;\n    mapping(address => uint) scale_id;\n    bytes32[] public curr_hash;\n    uint[] public block_id;\n //   uint[][] public signers; \n\n    struct G1Point {\n        uint X;\n        uint Y;\n    }\n    struct G2Point {\n        uint[2] X;\n        uint[2] Y;\n    }\n    uint g2x1 = 11559732032986387107991004021392285783925812861821192530917403151452391805634;\n    uint g2x2 = 10857046999023057135944570762232829481370756359578518086990519993285655852781;\n    uint g2y1 = 4082367875863433681332203403145435568316851327593401208105741076214120093531;\n    uint g2y2 = 8495653923123431417604973247489272438418190587263600148770280649306958101930;\n\n\n    function P1() internal returns (G1Point) {\n        return G1Point(1, 2);\n    }\n\n    function P2() internal returns (G2Point) {\n        return G2Point([g2x1, g2x2], [g2y1, g2y2]);\n    }\n    struct ScaleNode {\n        address eth_addr;\n        string ip_addr;\n        uint pkx1;\n        uint pkx2;\n        uint pky1;\n        uint pky2;\n\n    }\n    // Initialize ScaleNodes so that a sender of a new block\n    // has to be one of the scaleNode\n    constructor(address admin_addr) public {\n        scale_nodes.push(ScaleNode({\n            eth_addr: admin_addr,\n            ip_addr: \"localhost\",\n            pkx1: g2x1,\n            pkx2: g2x2,\n            pky1: g2y1,\n            pky2: g2y2\n        }));\n        scale_id[admin_addr] = 0;\n        addSideChain();\n    }\n\n    // Current ScaleNode authorize new ScaleNode\n    // Note: check msg.sender and not duplicate\n    function addScaleNode(address new_scale_node, string ip_addr, uint pkx1, uint pkx2, uint pky1, uint pky2) public {\n        require (scale_nodes[scale_id[msg.sender]].eth_addr == msg.sender);\n        require (new_scale_node != scale_nodes[0].eth_addr);\n        require (scale_id[new_scale_node] == 0);\n        scale_nodes.push(ScaleNode({\n            eth_addr: new_scale_node,\n            ip_addr: ip_addr,\n            pkx1: pkx1,\n            pkx2: pkx2,\n            pky1: pky1,\n            pky2: pky2\n        }));\n        scale_id[new_scale_node] = scale_nodes.length-1;\n    }\n\n    function addSideChain() public {\n        block_id.push(0);\n        curr_hash.push(0);\n        //uint[] memory new_signers; \n      //  signers.push(new_signers);\n    }\n\n    // Get Ether node addresses\n    function getScaleNode(uint id) public view\n        returns (address scale_node_address) {\n            scale_node_address = scale_nodes[id].eth_addr;\n    }\n\n    function getScaleID(address addr) public view\n        returns (uint id) {\n            id = scale_id[addr];\n    }\n\n    function getScalePubKey(address addr) public view\n        returns (uint, uint, uint, uint) {\n            uint id = scale_id[addr];\n            return (scale_nodes[id].pkx1, scale_nodes[id].pkx2, scale_nodes[id].pky1, scale_nodes[id].pky2);\n    }\n\n    function getCurrentHash(uint sid) public view\n        returns (bytes32 currentHash) {\n            currentHash = curr_hash[sid];\n    }\n\n    function getBlockID(uint sid) public view\n        returns (uint bid) {\n            bid = block_id[sid];\n    }\n\n  //  function getSigners(uint sid, uint bid) public view returns(uint bitset) {\n  //      bitset = signers[sid][bid];\n //   }\n\n    function sideChainsCount() public view\n        returns (uint number_of_sideChains) {\n            number_of_sideChains = block_id.length;\n    }\n\n    // Get # of Ether nodes\n    function scaleNodesCount() public view\n        returns (uint number_of_scaleNodes) {\n            number_of_scaleNodes = scale_nodes.length;\n    }\n\n    function splitSignature(bytes memory sig) internal pure returns (uint8 v, bytes32 r, bytes32 s) {\n        require(sig.length == 65);\n        assembly {\n            r := mload(add(sig, 32))\n            s := mload(add(sig, 64))\n            v := byte(0, mload(add(sig, 96)))\n        }\n        if (v < 27) v = v + 27;\n    }\n    \n    function recoverSigner(string block, bytes sig) returns (address signer_address) {\n        bytes memory prefix = \"\\x19Ethereum Signed Message:\\n32\";\n        bytes32 prefixedHash = sha3(prefix, sha3(block));\n        (uint8 v, bytes32 r, bytes32 s) = splitSignature(sig);\n        signer_address = ecrecover(prefixedHash, v, r, s);\n    }\n    \n/*    function proposeBlock(string block_header, bytes signature, uint new_block_id) public {\n        \n        // 1.check signed by one of scaleNode\n        address signer_address = recoverSigner(block_header, signature);\n        require (scale_nodes[scale_id[signer_address]].eth_addr == signer_address);\n\n        //Check whether the new_block_id = block_id + 1. If not, reject the block. \n        require (block_id + 1 == new_block_id);\n\n        // 2. update hash tentative codes\n        bytes32 new_hash = sha256(curr_hash, sha256(block_header));\n        curr_hash = new_hash;\n        block_id = block_id + 1;\n    }\n*/\n    function pairing(G1Point[] p1, G2Point[] p2) internal returns (bool) {\n        require(p1.length == p2.length);\n        uint elements = p1.length;\n        uint inputSize = elements * 6;\n        uint[] memory input = new uint[](inputSize);\n\n        for (uint i = 0; i < elements; i++)\n        {\n            input[i * 6 + 0] = p1[i].X;\n            input[i * 6 + 1] = p1[i].Y;\n            input[i * 6 + 2] = p2[i].X[0];\n            input[i * 6 + 3] = p2[i].X[1];\n            input[i * 6 + 4] = p2[i].Y[0];\n            input[i * 6 + 5] = p2[i].Y[1];\n        }\n\n        uint[1] memory out;\n        bool success;\n\n        assembly {\n            success := call(sub(gas, 2000), 8, 0, add(input, 0x20), mul(inputSize, 0x20), out, 0x20)\n        // Use \"invalid\" to make gas estimation work\n            switch success case 0 {invalid}\n        }\n        require(success);\n        return out[0] != 0;\n    }\n\n    function pairing2(G1Point a1, G2Point a2, G1Point b1, G2Point b2) internal returns (bool) {\n        G1Point[] memory p1 = new G1Point[](2);\n        G2Point[] memory p2 = new G2Point[](2);\n        p1[0] = a1;\n        p1[1] = b1;\n        p2[0] = a2;\n        p2[1] = b2;\n        return pairing(p1, p2);\n    }\n\n    function submitVote(bytes block_header, uint sid, uint sigx, uint sigy, uint bitset) public {\n\n        // 1.check sent by one of scaleNodes\n        require(scale_nodes[scale_id[msg.sender]].eth_addr == msg.sender);\n\n        // 2. check block id\n     //   require(bid == block_id[sid] + 1);\n\n\n        // 3. check signature aggregation\n        require (bitset % 2 == 0);\n        uint bs = bitset / 2;\n        uint cnt = 0;\n        while (bs > 0) {\n            if (bs % 2 == 1) {\n                cnt += 1;\n            }\n            bs /= 2;\n        }\n        G1Point memory h0 = hashToG1(block_header);\n        \n        G1Point[] memory a = new G1Point[](cnt+1);\n        G2Point[] memory b = new G2Point[](cnt+1);\n        a[0] = negate(G1Point(sigx, sigy));\n        b[0] = P2();\n        bs = bitset / 2;\n        uint j = 1;\n        uint k = 1;\n        while (bs > 0) {\n            if (bs % 2 == 1) {\n                a[k] = h0;\n                b[k] = G2Point([scale_nodes[j].pkx1, scale_nodes[j].pkx2], [scale_nodes[j].pky1, scale_nodes[j].pky2]);\n                k += 1;\n            }\n            j += 1;\n            bs /= 2;\n        }\n        require(pairing(a, b));\n\n\n        // If pass, update hash\n        bytes32 new_hash = sha256(curr_hash[sid], sha256(block_header));\n        curr_hash[sid] = new_hash;\n      //  signers[sid].push(bitset);\n        block_id[sid] = block_id[sid] + 1;\n    }\n    function verifyBLS(bytes message, uint sigx, uint sigy, uint pkx1, uint pkx2, uint pky1, uint pky2) returns (bool) {\n        G1Point memory signature = G1Point(sigx, sigy);\n        G2Point memory pub_key = G2Point([pkx1, pkx2], [pky1, pky2]);\n        G1Point memory h = hashToG1(message);\n        return pairing2(negate(signature), P2(), h, pub_key);\n    }\n\n    function hashToG1(bytes message) internal returns (G1Point) {\n        uint256 h = uint256(keccak256(message));\n        return mul(P1(), h);\n    }\n\n    function modPow(uint256 base, uint256 exponent, uint256 modulus) internal returns (uint256) {\n        uint256[6] memory input = [32, 32, 32, base, exponent, modulus];\n        uint256[1] memory result;\n        assembly {\n            if iszero(call(not(0), 0x05, 0, input, 0xc0, result, 0x20)) {\n                revert(0, 0)\n            }\n        }\n        return result[0];\n    }\n\n    /// @return the negation of p, i.e. p.add(p.negate()) should be zero.\n    function negate(G1Point p) internal returns (G1Point) {\n        // The prime q in the base field F_q for G1\n        uint q = 21888242871839275222246405745257275088696311157297823662689037894645226208583;\n        if (p.X == 0 && p.Y == 0)\n            return G1Point(0, 0);\n        return G1Point(p.X, q - (p.Y % q));\n    }\n\n    /// @return the sum of two points of G1\n    function add(G1Point p1, G1Point p2) internal returns (G1Point r) {\n        uint[4] memory input;\n        input[0] = p1.X;\n        input[1] = p1.Y;\n        input[2] = p2.X;\n        input[3] = p2.Y;\n        bool success;\n        assembly {\n            success := call(sub(gas, 2000), 6, 0, input, 0xc0, r, 0x60)\n        // Use \"invalid\" to make gas estimation work\n            switch success case 0 {invalid}\n        }\n        require(success);\n    }\n    /// @return the product of a point on G1 and a scalar, i.e.\n    /// p == p.mul(1) and p.add(p) == p.mul(2) for all points p.\n    function mul(G1Point p, uint s) internal returns (G1Point r) {\n        uint[3] memory input;\n        input[0] = p.X;\n        input[1] = p.Y;\n        input[2] = s;\n        bool success;\n        assembly {\n            success := call(sub(gas, 2000), 7, 0, input, 0x80, r, 0x60)\n        // Use \"invalid\" to make gas estimation work\n            switch success case 0 {invalid}\n        }\n        require(success);\n    }\n\n\n\n\n    \n\n}",
  "sourcePath": "/Users/spy/final_test/ScaleChain/ScaleChain_v2/contracts/ScaleChain.sol",
  "compiler": {
    "name": "solc",
    "version": "0.4.24+commit.e67f0147.Emscripten.clang"
  },
  "schemaVersion": "3.0.19",
  "updatedAt": "2020-06-18T06:21:22.019Z",
  "networkType": "ethereum",
  "devdoc": {
    "methods": {}
  },
  "userdoc": {
    "methods": {}
  }
}